{"abi":[{"type":"function","name":"LIQUIDATION_THRESHOLD","inputs":[],"outputs":[{"name":"","type":"uint256","internalType":"uint256"}],"stateMutability":"view"},{"type":"function","name":"MAX_LEVERAGE","inputs":[],"outputs":[{"name":"","type":"uint256","internalType":"uint256"}],"stateMutability":"view"},{"type":"function","name":"PRECISION","inputs":[],"outputs":[{"name":"","type":"uint256","internalType":"uint256"}],"stateMutability":"view"},{"type":"function","name":"PROTOCOL_FEE","inputs":[],"outputs":[{"name":"","type":"uint256","internalType":"uint256"}],"stateMutability":"view"}],"bytecode":{"object":"0x60ba610034600b8282823980515f1a60731461002857634e487b7160e01b5f525f60045260245ffd5b305f52607381538281f3fe73000000000000000000000000000000000000000030146080604052600436106050575f3560e01c80630b4501fd14605457806390a8ae9b14606d5780639b45ec97146075578063aaf5eb6814607c575b5f80fd5b605b60fa81565b60405190815260200160405180910390f35b605b611f4081565b605b606481565b605b6127108156fea2646970667358221220b99c67064e4876b7e7cb0fd70bc65a8580676069735401004bfcdcd387cb49a664736f6c63430008140033","linkReferences":{}},"methodIdentifiers":{"LIQUIDATION_THRESHOLD()":"90a8ae9b","MAX_LEVERAGE()":"9b45ec97","PRECISION()":"aaf5eb68","PROTOCOL_FEE()":"0b4501fd"},"id":33}