{"abi":[{"type":"constructor","inputs":[{"name":"_usdtToken","type":"address","internalType":"address"},{"name":"_agentNFT","type":"address","internalType":"address"},{"name":"_priceOracle","type":"address","internalType":"address"},{"name":"_feeRecipient","type":"address","internalType":"address"}],"stateMutability":"nonpayable"},{"type":"function","name":"LIQUIDATION_THRESHOLD","inputs":[],"outputs":[{"name":"","type":"uint256","internalType":"uint256"}],"stateMutability":"view"},{"type":"function","name":"MAX_COLLATERAL","inputs":[],"outputs":[{"name":"","type":"uint256","internalType":"uint256"}],"stateMutability":"view"},{"type":"function","name":"MIN_COLLATERAL","inputs":[],"outputs":[{"name":"","type":"uint256","internalType":"uint256"}],"stateMutability":"view"},{"type":"function","name":"ROUND_DURATION","inputs":[],"outputs":[{"name":"","type":"uint256","internalType":"uint256"}],"stateMutability":"view"},{"type":"function","name":"addAsset","inputs":[{"name":"asset","type":"string","internalType":"string"}],"outputs":[],"stateMutability":"nonpayable"},{"type":"function","name":"agentNFT","inputs":[],"outputs":[{"name":"","type":"address","internalType":"contract IAgentNFT"}],"stateMutability":"view"},{"type":"function","name":"agents","inputs":[{"name":"","type":"uint256","internalType":"uint256"}],"outputs":[{"name":"tokenId","type":"uint256","internalType":"uint256"},{"name":"owner","type":"address","internalType":"address"},{"name":"direction","type":"uint8","internalType":"enum AIperpArena.Direction"},{"name":"leverage","type":"uint256","internalType":"uint256"},{"name":"collateral","type":"uint256","internalType":"uint256"},{"name":"pnl","type":"int256","internalType":"int256"},{"name":"entryPrice","type":"uint256","internalType":"uint256"},{"name":"lastUpdateTime","type":"uint256","internalType":"uint256"},{"name":"status","type":"uint8","internalType":"enum AIperpArena.AgentStatus"},{"name":"takeProfit","type":"uint256","internalType":"uint256"},{"name":"stopLoss","type":"uint256","internalType":"uint256"},{"name":"asset","type":"string","internalType":"string"}],"stateMutability":"view"},{"type":"function","name":"assetPrices","inputs":[{"name":"","type":"string","internalType":"string"}],"outputs":[{"name":"","type":"uint256","internalType":"uint256"}],"stateMutability":"view"},{"type":"function","name":"battleRounds","inputs":[{"name":"","type":"uint256","internalType":"uint256"}],"outputs":[{"name":"roundId","type":"uint256","internalType":"uint256"},{"name":"startTime","type":"uint256","internalType":"uint256"},{"name":"endTime","type":"uint256","internalType":"uint256"},{"name":"longTotal","type":"uint256","internalType":"uint256"},{"name":"shortTotal","type":"uint256","internalType":"uint256"},{"name":"winningSide","type":"uint256","internalType":"uint256"},{"name":"priceChange","type":"int256","internalType":"int256"},{"name":"settled","type":"bool","internalType":"bool"}],"stateMutability":"view"},{"type":"function","name":"calculateAgentCurrentPnL","inputs":[{"name":"tokenId","type":"uint256","internalType":"uint256"}],"outputs":[{"name":"currentPnL","type":"int256","internalType":"int256"},{"name":"shouldLiquidate","type":"bool","internalType":"bool"}],"stateMutability":"view"},{"type":"function","name":"currentRoundId","inputs":[],"outputs":[{"name":"","type":"uint256","internalType":"uint256"}],"stateMutability":"view"},{"type":"function","name":"deployAgent","inputs":[{"name":"tokenId","type":"uint256","internalType":"uint256"},{"name":"direction","type":"uint8","internalType":"enum AIperpArena.Direction"},{"name":"leverage","type":"uint256","internalType":"uint256"},{"name":"collateral","type":"uint256","internalType":"uint256"},{"name":"takeProfit","type":"uint256","internalType":"uint256"},{"name":"stopLoss","type":"uint256","internalType":"uint256"},{"name":"asset","type":"string","internalType":"string"}],"outputs":[],"stateMutability":"nonpayable"},{"type":"function","name":"deposit","inputs":[{"name":"amount","type":"uint256","internalType":"uint256"}],"outputs":[],"stateMutability":"nonpayable"},{"type":"function","name":"emergencyWithdraw","inputs":[{"name":"amount","type":"uint256","internalType":"uint256"}],"outputs":[],"stateMutability":"nonpayable"},{"type":"function","name":"exitAgent","inputs":[{"name":"tokenId","type":"uint256","internalType":"uint256"}],"outputs":[],"stateMutability":"nonpayable"},{"type":"function","name":"feeRecipient","inputs":[],"outputs":[{"name":"","type":"address","internalType":"address"}],"stateMutability":"view"},{"type":"function","name":"getAgentInfo","inputs":[{"name":"tokenId","type":"uint256","internalType":"uint256"}],"outputs":[{"name":"","type":"tuple","internalType":"struct AIperpArena.Agent","components":[{"name":"tokenId","type":"uint256","internalType":"uint256"},{"name":"owner","type":"address","internalType":"address"},{"name":"direction","type":"uint8","internalType":"enum AIperpArena.Direction"},{"name":"leverage","type":"uint256","internalType":"uint256"},{"name":"collateral","type":"uint256","internalType":"uint256"},{"name":"pnl","type":"int256","internalType":"int256"},{"name":"entryPrice","type":"uint256","internalType":"uint256"},{"name":"lastUpdateTime","type":"uint256","internalType":"uint256"},{"name":"status","type":"uint8","internalType":"enum AIperpArena.AgentStatus"},{"name":"takeProfit","type":"uint256","internalType":"uint256"},{"name":"stopLoss","type":"uint256","internalType":"uint256"},{"name":"asset","type":"string","internalType":"string"}]}],"stateMutability":"view"},{"type":"function","name":"getAllActiveAgents","inputs":[],"outputs":[{"name":"","type":"uint256[]","internalType":"uint256[]"}],"stateMutability":"view"},{"type":"function","name":"getCurrentRoundStats","inputs":[],"outputs":[{"name":"longTotal","type":"uint256","internalType":"uint256"},{"name":"shortTotal","type":"uint256","internalType":"uint256"},{"name":"timeRemaining","type":"uint256","internalType":"uint256"},{"name":"canSettle","type":"bool","internalType":"bool"}],"stateMutability":"view"},{"type":"function","name":"getRoundInfo","inputs":[{"name":"roundId","type":"uint256","internalType":"uint256"}],"outputs":[{"name":"","type":"tuple","internalType":"struct AIperpArena.BattleRound","components":[{"name":"roundId","type":"uint256","internalType":"uint256"},{"name":"startTime","type":"uint256","internalType":"uint256"},{"name":"endTime","type":"uint256","internalType":"uint256"},{"name":"longTotal","type":"uint256","internalType":"uint256"},{"name":"shortTotal","type":"uint256","internalType":"uint256"},{"name":"winningSide","type":"uint256","internalType":"uint256"},{"name":"priceChange","type":"int256","internalType":"int256"},{"name":"settled","type":"bool","internalType":"bool"}]}],"stateMutability":"view"},{"type":"function","name":"getRoundLoots","inputs":[{"name":"roundId","type":"uint256","internalType":"uint256"}],"outputs":[{"name":"","type":"tuple[]","internalType":"struct AIperpArena.LootEvent[]","components":[{"name":"roundId","type":"uint256","internalType":"uint256"},{"name":"winner","type":"address","internalType":"address"},{"name":"victim","type":"address","internalType":"address"},{"name":"amount","type":"uint256","internalType":"uint256"},{"name":"timestamp","type":"uint256","internalType":"uint256"}]}],"stateMutability":"view"},{"type":"function","name":"getSupportedAssets","inputs":[],"outputs":[{"name":"","type":"string[]","internalType":"string[]"}],"stateMutability":"view"},{"type":"function","name":"getUserActiveAgents","inputs":[{"name":"user","type":"address","internalType":"address"}],"outputs":[{"name":"","type":"uint256[]","internalType":"uint256[]"}],"stateMutability":"view"},{"type":"function","name":"isAssetSupported","inputs":[{"name":"asset","type":"string","internalType":"string"}],"outputs":[{"name":"","type":"bool","internalType":"bool"}],"stateMutability":"view"},{"type":"function","name":"owner","inputs":[],"outputs":[{"name":"","type":"address","internalType":"address"}],"stateMutability":"view"},{"type":"function","name":"pause","inputs":[],"outputs":[],"stateMutability":"nonpayable"},{"type":"function","name":"paused","inputs":[],"outputs":[{"name":"","type":"bool","internalType":"bool"}],"stateMutability":"view"},{"type":"function","name":"priceOracle","inputs":[],"outputs":[{"name":"","type":"address","internalType":"contract IPriceOracle"}],"stateMutability":"view"},{"type":"function","name":"protocolFee","inputs":[],"outputs":[{"name":"","type":"uint256","internalType":"uint256"}],"stateMutability":"view"},{"type":"function","name":"renounceOwnership","inputs":[],"outputs":[],"stateMutability":"nonpayable"},{"type":"function","name":"roundLoots","inputs":[{"name":"","type":"uint256","internalType":"uint256"},{"name":"","type":"uint256","internalType":"uint256"}],"outputs":[{"name":"roundId","type":"uint256","internalType":"uint256"},{"name":"winner","type":"address","internalType":"address"},{"name":"victim","type":"address","internalType":"address"},{"name":"amount","type":"uint256","internalType":"uint256"},{"name":"timestamp","type":"uint256","internalType":"uint256"}],"stateMutability":"view"},{"type":"function","name":"setFeeRecipient","inputs":[{"name":"newRecipient","type":"address","internalType":"address"}],"outputs":[],"stateMutability":"nonpayable"},{"type":"function","name":"setProtocolFee","inputs":[{"name":"newFee","type":"uint256","internalType":"uint256"}],"outputs":[],"stateMutability":"nonpayable"},{"type":"function","name":"settleBattleRound","inputs":[{"name":"asset","type":"string","internalType":"string"},{"name":"newPrice","type":"uint256","internalType":"uint256"}],"outputs":[],"stateMutability":"nonpayable"},{"type":"function","name":"supportedAssets","inputs":[{"name":"","type":"uint256","internalType":"uint256"}],"outputs":[{"name":"","type":"string","internalType":"string"}],"stateMutability":"view"},{"type":"function","name":"totalStaked","inputs":[],"outputs":[{"name":"","type":"uint256","internalType":"uint256"}],"stateMutability":"view"},{"type":"function","name":"transferOwnership","inputs":[{"name":"newOwner","type":"address","internalType":"address"}],"outputs":[],"stateMutability":"nonpayable"},{"type":"function","name":"unpause","inputs":[],"outputs":[],"stateMutability":"nonpayable"},{"type":"function","name":"usdtToken","inputs":[],"outputs":[{"name":"","type":"address","internalType":"contract IERC20"}],"stateMutability":"view"},{"type":"function","name":"userBalances","inputs":[{"name":"","type":"address","internalType":"address"}],"outputs":[{"name":"","type":"uint256","internalType":"uint256"}],"stateMutability":"view"},{"type":"function","name":"withdraw","inputs":[{"name":"amount","type":"uint256","internalType":"uint256"}],"outputs":[],"stateMutability":"nonpayable"},{"type":"event","name":"AgentDeployed","inputs":[{"name":"tokenId","type":"uint256","indexed":true,"internalType":"uint256"},{"name":"owner","type":"address","indexed":true,"internalType":"address"},{"name":"direction","type":"uint8","indexed":false,"internalType":"enum AIperpArena.Direction"},{"name":"leverage","type":"uint256","indexed":false,"internalType":"uint256"},{"name":"collateral","type":"uint256","indexed":false,"internalType":"uint256"},{"name":"asset","type":"string","indexed":false,"internalType":"string"},{"name":"entryPrice","type":"uint256","indexed":false,"internalType":"uint256"}],"anonymous":false},{"type":"event","name":"AgentExited","inputs":[{"name":"tokenId","type":"uint256","indexed":true,"internalType":"uint256"},{"name":"owner","type":"address","indexed":true,"internalType":"address"},{"name":"returnedCollateral","type":"uint256","indexed":false,"internalType":"uint256"},{"name":"finalPnl","type":"int256","indexed":false,"internalType":"int256"}],"anonymous":false},{"type":"event","name":"AgentLiquidated","inputs":[{"name":"tokenId","type":"uint256","indexed":true,"internalType":"uint256"},{"name":"owner","type":"address","indexed":true,"internalType":"address"},{"name":"collateralLost","type":"uint256","indexed":false,"internalType":"uint256"}],"anonymous":false},{"type":"event","name":"BattleSettled","inputs":[{"name":"roundId","type":"uint256","indexed":true,"internalType":"uint256"},{"name":"winningSide","type":"uint256","indexed":false,"internalType":"uint256"},{"name":"priceChange","type":"int256","indexed":false,"internalType":"int256"},{"name":"totalLoot","type":"uint256","indexed":false,"internalType":"uint256"},{"name":"longTotal","type":"uint256","indexed":false,"internalType":"uint256"},{"name":"shortTotal","type":"uint256","indexed":false,"internalType":"uint256"}],"anonymous":false},{"type":"event","name":"Deposit","inputs":[{"name":"user","type":"address","indexed":true,"internalType":"address"},{"name":"amount","type":"uint256","indexed":false,"internalType":"uint256"}],"anonymous":false},{"type":"event","name":"LootDistributed","inputs":[{"name":"roundId","type":"uint256","indexed":true,"internalType":"uint256"},{"name":"winner","type":"address","indexed":true,"internalType":"address"},{"name":"amount","type":"uint256","indexed":false,"internalType":"uint256"}],"anonymous":false},{"type":"event","name":"OwnershipTransferred","inputs":[{"name":"previousOwner","type":"address","indexed":true,"internalType":"address"},{"name":"newOwner","type":"address","indexed":true,"internalType":"address"}],"anonymous":false},{"type":"event","name":"Paused","inputs":[{"name":"account","type":"address","indexed":false,"internalType":"address"}],"anonymous":false},{"type":"event","name":"Unpaused","inputs":[{"name":"account","type":"address","indexed":false,"internalType":"address"}],"anonymous":false},{"type":"event","name":"Withdrawal","inputs":[{"name":"user","type":"address","indexed":true,"internalType":"address"},{"name":"amount","type":"uint256","indexed":false,"internalType":"uint256"}],"anonymous":false},{"type":"error","name":"EnforcedPause","inputs":[]},{"type":"error","name":"ExpectedPause","inputs":[]},{"type":"error","name":"OwnableInvalidOwner","inputs":[{"name":"owner","type":"address","internalType":"address"}]},{"type":"error","name":"OwnableUnauthorizedAccount","inputs":[{"name":"account","type":"address","internalType":"address"}]},{"type":"error","name":"ReentrancyGuardReentrantCall","inputs":[]}],"bytecode":{"object":"0x60806040526001600a5560fa600c553480156200001a575f80fd5b506040516200412e3803806200412e8339810160408190526200003d916200051c565b60015f5533806200006857604051631e4fbdf760e01b81525f60048201526024015b60405180910390fd5b6200007381620004af565b506001600160a01b038416620000cc5760405162461bcd60e51b815260206004820152601360248201527f4172656e613a20496e76616c696420555344540000000000000000000000000060448201526064016200005f565b6001600160a01b038316620001195760405162461bcd60e51b8152602060048201526012602482015271105c995b984e88125b9d985b1a590813919560721b60448201526064016200005f565b6001600160a01b038216620001715760405162461bcd60e51b815260206004820152601560248201527f4172656e613a20496e76616c6964204f7261636c65000000000000000000000060448201526064016200005f565b6001600160a01b038116620001c95760405162461bcd60e51b815260206004820152601c60248201527f4172656e613a20496e76616c69642066656520726563697069656e740000000060448201526064016200005f565b600280546001600160a01b03199081166001600160a01b0387811691909117909255600380548216868416178155600480548316868516179055600d8054909216928416929092179055604080516101008101825260018082524260208084019182525f848601818152606086018281526080870183815260a0880184815260c0890185815260e08a018681528987526006885299517f3e5fec24aa4dc4e5aee2e025e51e1392c72a2500577559fae9665c6d52bd6a315596517f3e5fec24aa4dc4e5aee2e025e51e1392c72a2500577559fae9665c6d52bd6a325592517f3e5fec24aa4dc4e5aee2e025e51e1392c72a2500577559fae9665c6d52bd6a335590517f3e5fec24aa4dc4e5aee2e025e51e1392c72a2500577559fae9665c6d52bd6a3455517f3e5fec24aa4dc4e5aee2e025e51e1392c72a2500577559fae9665c6d52bd6a3555517f3e5fec24aa4dc4e5aee2e025e51e1392c72a2500577559fae9665c6d52bd6a365591517f3e5fec24aa4dc4e5aee2e025e51e1392c72a2500577559fae9665c6d52bd6a375592517f3e5fec24aa4dc4e5aee2e025e51e1392c72a2500577559fae9665c6d52bd6a38805460ff1916911515919091179055600e80549283018155905282518084019093529282526242544360e81b908201525f805160206200410e83398151915290910190620003c9908262000616565b50600e80546001810182555f9190915260408051808201909152600381526208aa8960eb1b60208201525f805160206200410e8339815191529091019062000412908262000616565b50600e80546001810182555f9190915260408051808201909152600381526214d3d360ea1b60208201525f805160206200410e833981519152909101906200045b908262000616565b50600e80546001810182555f9190915260408051808201909152600381526226a7a760e91b60208201525f805160206200410e83398151915290910190620004a4908262000616565b5050505050620006de565b600180546001600160a01b038381166001600160a01b0319831681179093556040519116919082907f8be0079c531659141344cd1fd0a4f28419497f9722a3daafe3b4186f6b6457e0905f90a35050565b80516001600160a01b038116811462000517575f80fd5b919050565b5f805f806080858703121562000530575f80fd5b6200053b8562000500565b93506200054b6020860162000500565b92506200055b6040860162000500565b91506200056b6060860162000500565b905092959194509250565b634e487b7160e01b5f52604160045260245ffd5b600181811c908216806200059f57607f821691505b602082108103620005be57634e487b7160e01b5f52602260045260245ffd5b50919050565b601f82111562000611575f81815260208120601f850160051c81016020861015620005ec5750805b601f850160051c820191505b818110156200060d57828155600101620005f8565b5050505b505050565b81516001600160401b0381111562000632576200063262000576565b6200064a816200064384546200058a565b84620005c4565b602080601f83116001811462000680575f8415620006685750858301515b5f19600386901b1c1916600185901b1785556200060d565b5f85815260208120601f198616915b82811015620006b0578886015182559484019460019091019084016200068f565b5085821015620006ce57878501515f19600388901b60f8161c191681555b5050505050600190811b01905550565b613a2280620006ec5f395ff3fe608060405234801561000f575f80fd5b506004361061024a575f3560e01c8063817b1cd211610140578063b3202b60116100bf578063d8ce407311610084578063d8ce407314610663578063e5406dbf1461066b578063e74b981b14610680578063f2fde38b14610693578063f9172888146106a6578063fa779648146106d1575f80fd5b8063b3202b6014610544578063b33bf8c314610557578063b6b55f251461059e578063c68dbb37146105b1578063d38f34d0146105d1575f80fd5b80639cbe5efd116101055780639cbe5efd146104e2578063a37b7381146104eb578063a7c6b52e14610515578063a98ad46c14610528578063b0e21e8a1461053b575f80fd5b8063817b1cd2146104425780638456cb591461044b57806388c3ffb0146104535780638da5cb5b146104c857806390a8ae9b146104d9575f80fd5b806346904840116101cc578063623079e011610191578063623079e0146103d75780636641ea08146103f7578063715018a6146103ff57806376119bf114610407578063787dce3d1461042f575f80fd5b806346904840146103545780634b23a61214610367578063513856c8146103875780635312ea8e146103b25780635c975abb146103c5575f80fd5b80633932d1ab116102125780633932d1ab146102f75780633bfa049e1461031a5780633f4ba83a1461032d5780633fd773e91461033557806344cbe88514610348575f80fd5b806319a6a6e91461024e57806326224c64146102775780632630c12f146102a45780632aa43faf146102cf5780632e1a7d4d146102e4575b5f80fd5b61026161025c366004613020565b6106dc565b60405161026e91906130c1565b60405180910390f35b61029661028536600461318e565b60086020525f908152604090205481565b60405190815260200161026e565b6004546102b7906001600160a01b031681565b6040516001600160a01b03909116815260200161026e565b6102e26102dd366004613020565b61085e565b005b6102e26102f2366004613020565b610c58565b61030a610305366004613261565b610de2565b604051901515815260200161026e565b6102e2610328366004613293565b610df2565b6102e261141a565b6003546102b7906001600160a01b031681565b6102966402540be40081565b600d546102b7906001600160a01b031681565b61037a61037536600461318e565b61142c565b60405161026e9190613310565b61039a610395366004613020565b61163b565b60405161026e9c9b9a99989796959493929190613353565b6102e26103c0366004613020565b61172f565b600154600160a01b900460ff1661030a565b6103ea6103e5366004613020565b6117cc565b60405161026e91906133da565b610296603c81565b6102e2611872565b61041a610415366004613020565b611883565b6040805192835290151560208301520161026e565b6102e261043d366004613020565b611987565b610296600b5481565b6102e26119dc565b610466610461366004613020565b6119ec565b60405161026e91905f61010082019050825182526020830151602083015260408301516040830152606083015160608301526080830151608083015260a083015160a083015260c083015160c083015260e0830151151560e083015292915050565b6001546001600160a01b03166102b7565b610296611f4081565b610296600a5481565b6104f3611a9f565b604080519485526020850193909352918301521515606082015260800161026e565b6102e2610523366004613261565b611b15565b6002546102b7906001600160a01b031681565b610296600c5481565b6102e2610552366004613453565b611b58565b61056a610565366004613495565b611ead565b604080519586526001600160a01b03948516602087015292909316918401919091526060830152608082015260a00161026e565b6102e26105ac366004613020565b611f02565b6105c46105bf366004613020565b612027565b60405161026e91906134b5565b6106266105df366004613020565b600660208190525f91825260409091208054600182015460028301546003840154600485015460058601549686015460079096015494969395929491939092909160ff1688565b604080519889526020890197909752958701949094526060860192909252608085015260a084015260c0830152151560e08201526101000161026e565b61037a6120cd565b6106736120dc565b60405161026e91906134c7565b6102e261068e36600461318e565b6121b0565b6102e26106a136600461318e565b612229565b6102966106b4366004613261565b805160208183018101805160098252928201919093012091525481565b6102966305f5e10081565b6106e4612fb7565b5f828152600560209081526040918290208251610180810184528154815260018201546001600160a01b0381169382019390935292909190830190600160a01b900460ff16600281111561073a5761073a613037565b600281111561074b5761074b613037565b81526002828101546020830152600383015460408301526004830154606083015260058301546080830152600683015460a0830152600783015460c09092019160ff169081111561079e5761079e613037565b60028111156107af576107af613037565b81526020016008820154815260200160098201548152602001600a820180546107d790613527565b80601f016020809104026020016040519081016040528092919081815260200182805461080390613527565b801561084e5780601f106108255761010080835404028352916020019161084e565b820191905f5260205f20905b81548152906001019060200180831161083157829003601f168201915b5050505050815250509050919050565b610866612263565b61086e61228b565b5f81815260056020526040902060018101546001600160a01b031633146108cf5760405162461bcd60e51b815260206004820152601060248201526f20b932b7309d102737ba1037bbb732b960811b60448201526064015b60405180910390fd5b6001600782015460ff1660028111156108ea576108ea613037565b1461092b5760405162461bcd60e51b81526020600482015260116024820152704172656e613a204e6f742061637469766560781b60448201526064016108c6565b6004805460405163524f388960e01b81525f926001600160a01b039092169163524f38899161095f91600a8701910161355f565b602060405180830381865afa15801561097a573d5f803e3d5ffd5b505050506040513d601f19601f8201168201806040525081019061099e91906135e4565b90505f6109ec836003015484600201545f60028111156109c0576109c0613037565b6001870154600160a01b900460ff1660028111156109e0576109e0613037565b148660050154866122b6565b90505f80821315610a0e57818460030154610a07919061360f565b9050610a41565b5f610a1883613622565b90508460030154811015610a3b57808560030154610a36919061363c565b610a3d565b5f5b9150505b8015610af6575f80610a52836123ff565b600254600d5460405163a9059cbb60e01b81526001600160a01b03918216600482015260248101859052939550919350169063a9059cbb906044016020604051808303815f875af1158015610aa9573d5f803e3d5ffd5b505050506040513d601f19601f82011682018060405250810190610acd919061364f565b50335f9081526008602052604081208054839290610aec90849061360f565b9091555090925050505b5f6001850154600160a01b900460ff166002811115610b1757610b17613037565b03610b5057836003015460065f600a5481526020019081526020015f206003015f828254610b45919061363c565b90915550610b7e9050565b6003840154600a545f9081526006602052604081206004018054909190610b7890849061363c565b90915550505b60078401805460ff19169055600484018290556003840154600b80545f90610ba790849061363c565b909155505060035460405163c68d84f560e01b8152600481018790525f60248201526001600160a01b039091169063c68d84f5906044015f604051808303815f87803b158015610bf5575f80fd5b505af1158015610c07573d5f803e3d5ffd5b505060408051848152602081018690523393508892507fb30906f56977e1f6cbe2a6b23ef6a7094c15d170d69effaaa23e2e216a2ff379910160405180910390a350505050610c5560015f55565b50565b610c60612263565b610c6861228b565b5f8111610caf5760405162461bcd60e51b8152602060048201526015602482015274105c995b984e88125b9d985b1a5908185b5bdd5b9d605a1b60448201526064016108c6565b335f90815260086020526040902054811115610d0d5760405162461bcd60e51b815260206004820152601b60248201527f4172656e613a20496e73756666696369656e742062616c616e6365000000000060448201526064016108c6565b335f9081526008602052604081208054839290610d2b90849061363c565b909155505060025460405163a9059cbb60e01b8152336004820152602481018390526001600160a01b039091169063a9059cbb906044016020604051808303815f875af1158015610d7e573d5f803e3d5ffd5b505050506040513d601f19601f82011682018060405250810190610da2919061364f565b5060405181815233907f7fcf532c15f0a6db0bd6d0e038bea71d30d808c7d98cb3bf7268a95bf5081b65906020015b60405180910390a2610c5560015f55565b5f610dec8261242c565b92915050565b610dfa612263565b610e0261228b565b6003546040516331a9108f60e11b81526004810189905233916001600160a01b031690636352211e90602401602060405180830381865afa158015610e49573d5f803e3d5ffd5b505050506040513d601f19601f82011682018060405250810190610e6d919061366e565b6001600160a01b031614610eb65760405162461bcd60e51b815260206004820152601060248201526f20b932b7309d102737ba1037bbb732b960811b60448201526064016108c6565b5f8781526005602052604081206007015460ff166002811115610edb57610edb613037565b14610f285760405162461bcd60e51b815260206004820152601760248201527f4172656e613a20416c7265616479206465706c6f79656400000000000000000060448201526064016108c6565b6305f5e100841015610f7c5760405162461bcd60e51b815260206004820152601b60248201527f4172656e613a2042656c6f77206d696e20636f6c6c61746572616c000000000060448201526064016108c6565b6402540be400841115610fd15760405162461bcd60e51b815260206004820152601b60248201527f4172656e613a2041626f7665206d617820636f6c6c61746572616c000000000060448201526064016108c6565b60018510158015610fe3575060648511155b61102f5760405162461bcd60e51b815260206004820152601760248201527f4172656e613a20496e76616c6964206c6576657261676500000000000000000060448201526064016108c6565b6110388161242c565b6110845760405162461bcd60e51b815260206004820152601a60248201527f4172656e613a204173736574206e6f7420737570706f7274656400000000000060448201526064016108c6565b335f908152600860205260409020548411156110e25760405162461bcd60e51b815260206004820152601b60248201527f4172656e613a20496e73756666696369656e742062616c616e6365000000000060448201526064016108c6565b6004805460405163524f388960e01b81525f926001600160a01b039092169163524f388991611113918691016134b5565b602060405180830381865afa15801561112e573d5f803e3d5ffd5b505050506040513d601f19601f8201168201806040525081019061115291906135e4565b335f9081526008602052604081208054929350879290919061117590849061363c565b909155505060408051610180810182528981523360208201529081018860028111156111a3576111a3613037565b815260208101889052604081018790525f6060820152608081018390524260a082015260c001600181526020808201879052604080830187905260609092018590525f8b81526005825282902083518155908301516001820180546001600160a01b039092166001600160a01b031983168117825593850151929390916001600160a81b03191617600160a01b83600281111561124257611242613037565b0217905550606082015181600201556080820151816003015560a0820151816004015560c0820151816005015560e08201518160060155610100820151816007015f6101000a81548160ff021916908360028111156112a3576112a3613037565b021790555061012082015160088201556101408201516009820155610160820151600a8201906112d390826136d7565b5090505084600b5f8282546112e8919061360f565b909155505f905087600281111561130157611301613037565b0361133457600a545f908152600660205260408120600301805487929061132990849061360f565b9091555061135d9050565b600a545f908152600660205260408120600401805487929061135790849061360f565b90915550505b60035460405163c68d84f560e01b8152600481018a9052600160248201526001600160a01b039091169063c68d84f5906044015f604051808303815f87803b1580156113a7575f80fd5b505af11580156113b9573d5f803e3d5ffd5b50505050336001600160a01b0316887f77448deb6d177b26847f8b88329152c7248ac0944d584ace4483f8fe0a8d58de89898987876040516113ff959493929190613793565b60405180910390a35061141160015f55565b50505050505050565b611422612499565b61142a6124c6565b565b600354604051633d46519d60e01b81526001600160a01b0383811660048301526060925f92911690633d46519d906024015f60405180830381865afa158015611477573d5f803e3d5ffd5b505050506040513d5f823e601f3d908101601f1916820160405261149e91908101906137d2565b90505f815167ffffffffffffffff8111156114bb576114bb6131b0565b6040519080825280602002602001820160405280156114e4578160200160208202803683370190505b5090505f805b835181101561159757600160055f86848151811061150a5761150a613873565b60209081029190910181015182528101919091526040015f206007015460ff16600281111561153b5761153b613037565b036115855783818151811061155257611552613873565b602002602001015183838151811061156c5761156c613873565b60209081029190910101528161158181613887565b9250505b8061158f81613887565b9150506114ea565b505f8167ffffffffffffffff8111156115b2576115b26131b0565b6040519080825280602002602001820160405280156115db578160200160208202803683370190505b5090505f5b82811015611631578381815181106115fa576115fa613873565b602002602001015182828151811061161457611614613873565b60209081029190910101528061162981613887565b9150506115e0565b5095945050505050565b600560208190525f918252604090912080546001820154600283015460038401546004850154958501546006860154600787015460088801546009890154600a8a018054999b6001600160a01b038a169b600160a01b909a0460ff9081169b999a9899919895169491906116ae90613527565b80601f01602080910402602001604051908101604052809291908181526020018280546116da90613527565b80156117255780601f106116fc57610100808354040283529160200191611725565b820191905f5260205f20905b81548152906001019060200180831161170857829003601f168201915b505050505090508c565b611737612499565b6002546001600160a01b031663a9059cbb61175a6001546001600160a01b031690565b6040516001600160e01b031960e084901b1681526001600160a01b039091166004820152602481018490526044016020604051808303815f875af11580156117a4573d5f803e3d5ffd5b505050506040513d601f19601f820116820180604052508101906117c8919061364f565b5050565b606060075f8381526020019081526020015f20805480602002602001604051908101604052809291908181526020015f905b82821015611867575f8481526020908190206040805160a08101825260058602909201805483526001808201546001600160a01b0390811685870152600283015416928401929092526003810154606084015260040154608083015290835290920191016117fe565b505050509050919050565b61187a612499565b61142a5f61251b565b5f81815260056020526040812081906001600782015460ff1660028111156118ad576118ad613037565b146118bd57505f93849350915050565b6004805460405163524f388960e01b81525f926001600160a01b039092169163524f3889916118f191600a8701910161355f565b602060405180830381865afa15801561190c573d5f803e3d5ffd5b505050506040513d601f19601f8201168201806040525081019061193091906135e4565b6003830154600284015491925061196e915f6001860154600160a01b900460ff16600281111561196257611962613037565b148560050154856122b6565b935061197e84836003015461256c565b92505050915091565b61198f612499565b6103e88111156119d75760405162461bcd60e51b8152602060048201526013602482015272082e4cadcc274408ccaca40e8dede40d0d2ced606b1b60448201526064016108c6565b600c55565b6119e4612499565b61142a6125ad565b611a2e6040518061010001604052805f81526020015f81526020015f81526020015f81526020015f81526020015f81526020015f81526020015f151581525090565b505f90815260066020818152604092839020835161010081018552815481526001820154928101929092526002810154938201939093526003830154606082015260048301546080820152600583015460a08201529082015460c082015260079091015460ff16151560e082015290565b600a545f908152600660205260408120600381015460048201546001830154919390929091829190611ad390603c9061360f565b4210611aec5760078101545f935060ff16159150611b0e565b42603c8260010154611afe919061360f565b611b08919061363c565b92505f91505b5090919293565b611b1d612499565b600e80546001810182555f919091527fbb7b4a454dc3493923482f07822329ed19e8244eff582cc204f8554c3620c3fd016117c882826136d7565b611b60612499565b600a545f908152600660205260409020600781015460ff1615611bbe5760405162461bcd60e51b8152602060048201526016602482015275105c995b984e88105b1c9958591e481cd95d1d1b195960521b60448201526064016108c6565b603c8160010154611bcf919061360f565b421015611c175760405162461bcd60e51b8152602060048201526016602482015275105c995b984e88149bdd5b99081b9bdd08195b99195960521b60448201526064016108c6565b5f600984604051611c28919061389f565b9081526020016040518091039020549050805f03611cb1576004805460405163524f388960e01b81526001600160a01b039091169163524f388991611c6f918891016134b5565b602060405180830381865afa158015611c8a573d5f803e3d5ffd5b505050506040513d601f19601f82011682018060405250810190611cae91906135e4565b90505b82600985604051611cc2919061389f565b908152604051908190036020019020555f818410611d025781611ce5818661363c565b611cf1906127106138ba565b611cfb91906138e5565b9050611d2f565b81611d0d858261363c565b611d19906127106138ba565b611d2391906138e5565b611d2c90613622565b90505b5f808213611d3e576001611d40565b5f5b60ff16600585018190556006850183905542600286015560078501805460ff19166001179055600385015460048601549192505f91611d809190856125f0565b9050611d93600a5483836020015161279a565b611d9d8787612a83565b600a546020828101516003880154600489015460408051888152948501899052840192909252606083015260808201527f0e4bfc2af82ff917ab974c60712b0304ce849b57b3399173d089dc7003c71aee9060a00160405180910390a2600a8054905f611e0983613887565b90915550506040805161010081018252600a548082524260208084019182525f848601818152606086018281526080870183815260a0880184815260c0890185815260e08a0186815298865260069687905299909420975188559451600188015590516002870155516003860155915160048501559051600584015592519282019290925590516007909101805460ff191691151591909117905550505050505050565b6007602052815f5260405f208181548110611ec6575f80fd5b5f918252602090912060059091020180546001820154600283015460038401546004909401549295506001600160a01b03918216945016919085565b611f0a612263565b611f1261228b565b5f8111611f595760405162461bcd60e51b8152602060048201526015602482015274105c995b984e88125b9d985b1a5908185b5bdd5b9d605a1b60448201526064016108c6565b6002546040516323b872dd60e01b8152336004820152306024820152604481018390526001600160a01b03909116906323b872dd906064016020604051808303815f875af1158015611fad573d5f803e3d5ffd5b505050506040513d601f19601f82011682018060405250810190611fd1919061364f565b50335f9081526008602052604081208054839290611ff090849061360f565b909155505060405181815233907fe1fffcc4923d04b559f4d29a8bfc6cda04eb5b0d3c460751c2402c5c5cc9109c90602001610dd1565b600e8181548110612036575f80fd5b905f5260205f20015f91509050805461204e90613527565b80601f016020809104026020016040519081016040528092919081815260200182805461207a90613527565b80156120c55780601f1061209c576101008083540402835291602001916120c5565b820191905f5260205f20905b8154815290600101906020018083116120a857829003601f168201915b505050505081565b60606120d7612b83565b905090565b6060600e805480602002602001604051908101604052809291908181526020015f905b828210156121a7578382905f5260205f2001805461211c90613527565b80601f016020809104026020016040519081016040528092919081815260200182805461214890613527565b80156121935780601f1061216a57610100808354040283529160200191612193565b820191905f5260205f20905b81548152906001019060200180831161217657829003601f168201915b5050505050815260200190600101906120ff565b50505050905090565b6121b8612499565b6001600160a01b0381166122075760405162461bcd60e51b81526020600482015260166024820152754172656e613a20496e76616c6964206164647265737360501b60448201526064016108c6565b600d80546001600160a01b0319166001600160a01b0392909216919091179055565b612231612499565b6001600160a01b03811661225a57604051631e4fbdf760e01b81525f60048201526024016108c6565b610c558161251b565b60025f540361228557604051633ee5aeb560e01b815260040160405180910390fd5b60025f55565b600154600160a01b900460ff161561142a5760405163d93c066560e01b815260040160405180910390fd5b5f8083116123065760405162461bcd60e51b815260206004820181905260248201527f426174746c654c6f6769633a20496e76616c696420656e74727920707269636560448201526064016108c6565b5f85118015612316575060648511155b6123625760405162461bcd60e51b815260206004820152601d60248201527f426174746c654c6f6769633a20496e76616c6964206c6576657261676500000060448201526064016108c6565b5f8383106123935783612710612378828661363c565b61238291906138ba565b61238c91906138e5565b90506123c1565b836127106123a1858361363c565b6123ab91906138ba565b6123b591906138e5565b6123be90613622565b90505b846123d2576123cf81613622565b90505b612710816123e0888a6138f8565b6123ea91906138f8565b6123f49190613927565b979650505050505050565b5f8061271061240f60fa856138ba565b61241991906138e5565b9150612425828461363c565b9050915091565b5f805b600e54811015612491578280519060200120600e828154811061245457612454613873565b905f5260205f20016040516124699190613953565b60405180910390200361247f5750600192915050565b8061248981613887565b91505061242f565b505f92915050565b6001546001600160a01b0316331461142a5760405163118cdaa760e01b81523360048201526024016108c6565b6124ce612d5b565b6001805460ff60a01b191690557f5db9ee0a495bf2e6ff9c91a7834c1ba4fdd244a5e8aa4e537bd38aeae4b073aa335b6040516001600160a01b03909116815260200160405180910390a1565b600180546001600160a01b038381166001600160a01b0319831681179093556040519116919082907f8be0079c531659141344cd1fd0a4f28419497f9722a3daafe3b4186f6b6457e0905f90a35050565b5f80831261257b57505f610dec565b5f61258584613622565b90505f612710612597611f40866138ba565b6125a191906138e5565b90911015949350505050565b6125b561228b565b6001805460ff60a01b1916600160a01b1790557f62e78cea01bee320cd4e420270b5ea74000d11b0c9f74754ebdbfc544b05a2586124fe3390565b61261d6040518060a001604052805f81526020015f81526020015f81526020015f81526020015f81525090565b5f84118061262a57505f83115b6126765760405162461bcd60e51b815260206004820152601a60248201527f426174746c654c6f6769633a204e6f20636f6c6c61746572616c00000000000060448201526064016108c6565b5f821380612685576001612687565b5f5b60ff168252608082018390525f8084136126a9576126a484613622565b6126ab565b835b9050600a821561272357612710826126c3838a6138ba565b6126cd91906138ba565b6126d791906138e5565b6040850152612710826126ea83896138ba565b6126f491906138ba565b6126fe91906138e5565b6060850181905286101561271457606084018690525b60608401516020850152612790565b61271082612731838a6138ba565b61273b91906138ba565b61274591906138e5565b60408501526127108261275883896138ba565b61276291906138ba565b61276c91906138e5565b6060850152604084015187101561278557604084018790525b604084015160208501525b5050509392505050565b805f036127a657505050565b5f6127af612b83565b905080515f036127bf5750505050565b5f80825167ffffffffffffffff8111156127db576127db6131b0565b604051908082528060200260200182016040528015612804578160200160208202803683370190505b5090505f805b8451811015612915575f60055f87848151811061282957612829613873565b602002602001015181526020019081526020015f2090505f885f14801561286e57505f6001830154600160a01b900460ff16600281111561286c5761286c613037565b145b806128a257508860011480156128a25750600180830154600160a01b900460ff1660028111156128a0576128a0613037565b145b905080156129005760038201546128b9908761360f565b95508683815181106128cd576128cd613873565b60200260200101518585815181106128e7576128e7613873565b6020908102919091010152836128fc81613887565b9450505b5050808061290d90613887565b91505061280a565b50825f036129265750505050505050565b5f5b81811015612a79575f60055f85848151811061294657612946613873565b602002602001015181526020019081526020015f2090505f61296d8260030154878a612d85565b905080826004015f82825461298291906139c5565b90915550505f8a8152600760209081526040808320815160a0810183528e8152600180880180546001600160a01b03908116848801908152848701898152606086018b8152426080880190815288548088018a55988c5299909a20955160059097029095019586555192850180549382166001600160a01b031994851617905592516002850180549185169190931617909155945160038301559251600490910155915491519116908b907ff9d2c9e6fe0650760579055d0f46fbed2784a5d95868917588ff46939e36b90390612a5c9085815260200190565b60405180910390a350508080612a7190613887565b915050612928565b5050505050505050565b5f612a8c612b83565b90505f5b8151811015612b7d575f60055f848481518110612aaf57612aaf613873565b602002602001015181526020019081526020015f209050848051906020012081600a01604051612adf9190613953565b604051809103902014612af25750612b6b565b600381015460028201545f91612b2f91836001860154600160a01b900460ff166002811115612b2357612b23613037565b148560050154896122b6565b9050612b3f81836003015461256c565b15612b6857612b68848481518110612b5957612b59613873565b60200260200101518383612df2565b50505b80612b7581613887565b915050612a90565b50505050565b60605f60035f9054906101000a90046001600160a01b03166001600160a01b03166375794a3c6040518163ffffffff1660e01b8152600401602060405180830381865afa158015612bd6573d5f803e3d5ffd5b505050506040513d601f19601f82011682018060405250810190612bfa91906135e4565b90505f8167ffffffffffffffff811115612c1657612c166131b0565b604051908082528060200260200182016040528015612c3f578160200160208202803683370190505b5090505f60015b83811015612cb85760015f8281526005602052604090206007015460ff166002811115612c7557612c75613037565b03612ca65780838381518110612c8d57612c8d613873565b602090810291909101015281612ca281613887565b9250505b80612cb081613887565b915050612c46565b505f8167ffffffffffffffff811115612cd357612cd36131b0565b604051908082528060200260200182016040528015612cfc578160200160208202803683370190505b5090505f5b82811015612d5257838181518110612d1b57612d1b613873565b6020026020010151828281518110612d3557612d35613873565b602090810291909101015280612d4a81613887565b915050612d01565b50949350505050565b600154600160a01b900460ff1661142a57604051638dfc202b60e01b815260040160405180910390fd5b5f808311612dd55760405162461bcd60e51b815260206004820152601760248201527f426174746c654c6f6769633a204e6f2077696e6e65727300000000000000000060448201526064016108c6565b82612de083866138ba565b612dea91906138e5565b949350505050565b6001600783015460ff166002811115612e0d57612e0d613037565b14612e4e5760405162461bcd60e51b81526020600482015260116024820152704172656e613a204e6f742061637469766560781b60448201526064016108c6565b60038201545f6001840154600160a01b900460ff166002811115612e7457612e74613037565b03612ead57826003015460065f600a5481526020019081526020015f206003015f828254612ea2919061363c565b90915550612edb9050565b6003830154600a545f9081526006602052604081206004018054909190612ed590849061363c565b90915550505b60078301805460ff19166002179055600483018290556003830154600b80545f90612f0790849061363c565b909155505060035460405163c68d84f560e01b8152600481018690525f60248201526001600160a01b039091169063c68d84f5906044015f604051808303815f87803b158015612f55575f80fd5b505af1158015612f67573d5f803e3d5ffd5b5050505060018301546040518281526001600160a01b039091169085907fce56acdf8c34af315eae8bba7e0eccd9b77ba34f1a68950da73596f2ec4fc72c9060200160405180910390a350505050565b60408051610180810182525f80825260208201819052909182019081526020015f81526020015f81526020015f81526020015f81526020015f81526020015f600281111561300757613007613037565b81526020015f81526020015f8152602001606081525090565b5f60208284031215613030575f80fd5b5035919050565b634e487b7160e01b5f52602160045260245ffd5b60038110610c5557634e487b7160e01b5f52602160045260245ffd5b6130708161304b565b9052565b5f5b8381101561308e578181015183820152602001613076565b50505f910152565b5f81518084526130ad816020860160208601613074565b601f01601f19169290920160200192915050565b60208152815160208201525f60208301516130e760408401826001600160a01b03169052565b5060408301516130fa6060840182613067565b5060608301516080830152608083015160a083015260a083015160c083015260c083015160e083015260e083015161010081818501528085015191505061012061314681850183613067565b8401516101408481019190915284015161016080850191909152840151610180808501529050612dea6101a0840182613096565b6001600160a01b0381168114610c55575f80fd5b5f6020828403121561319e575f80fd5b81356131a98161317a565b9392505050565b634e487b7160e01b5f52604160045260245ffd5b604051601f8201601f1916810167ffffffffffffffff811182821017156131ed576131ed6131b0565b604052919050565b5f82601f830112613204575f80fd5b813567ffffffffffffffff81111561321e5761321e6131b0565b613231601f8201601f19166020016131c4565b818152846020838601011115613245575f80fd5b816020850160208301375f918101602001919091529392505050565b5f60208284031215613271575f80fd5b813567ffffffffffffffff811115613287575f80fd5b612dea848285016131f5565b5f805f805f805f60e0888a0312156132a9575f80fd5b873596506020880135600381106132be575f80fd5b955060408801359450606088013593506080880135925060a0880135915060c088013567ffffffffffffffff8111156132f5575f80fd5b6133018a828b016131f5565b91505092959891949750929550565b602080825282518282018190525f9190848201906040850190845b818110156133475783518352928401929184019160010161332b565b50909695505050505050565b8c81526001600160a01b038c1660208201525f6101806133728d61304b565b8c60408401528b60608401528a60808401528960a08401528860c08401528760e084015261339f8761304b565b866101008401528561012084015284610140840152806101608401526133c781840185613096565b9f9e505050505050505050505050505050565b602080825282518282018190525f919060409081850190868401855b8281101561344657815180518552868101516001600160a01b0390811688870152868201511686860152606080820151908601526080908101519085015260a090930192908501906001016133f6565b5091979650505050505050565b5f8060408385031215613464575f80fd5b823567ffffffffffffffff81111561347a575f80fd5b613486858286016131f5565b95602094909401359450505050565b5f80604083850312156134a6575f80fd5b50508035926020909101359150565b602081525f6131a96020830184613096565b5f602080830181845280855180835260408601915060408160051b87010192508387015f5b8281101561351a57603f19888603018452613508858351613096565b945092850192908501906001016134ec565b5092979650505050505050565b600181811c9082168061353b57607f821691505b60208210810361355957634e487b7160e01b5f52602260045260245ffd5b50919050565b5f60208083525f845461357181613527565b8084870152604060018084165f811461359157600181146135ab576135d6565b60ff1985168984015283151560051b8901830195506135d6565b895f52865f205f5b858110156135ce5781548b82018601529083019088016135b3565b8a0184019650505b509398975050505050505050565b5f602082840312156135f4575f80fd5b5051919050565b634e487b7160e01b5f52601160045260245ffd5b80820180821115610dec57610dec6135fb565b5f600160ff1b8201613636576136366135fb565b505f0390565b81810381811115610dec57610dec6135fb565b5f6020828403121561365f575f80fd5b815180151581146131a9575f80fd5b5f6020828403121561367e575f80fd5b81516131a98161317a565b601f8211156136d2575f81815260208120601f850160051c810160208610156136af5750805b601f850160051c820191505b818110156136ce578281556001016136bb565b5050505b505050565b815167ffffffffffffffff8111156136f1576136f16131b0565b613705816136ff8454613527565b84613689565b602080601f831160018114613738575f84156137215750858301515b5f19600386901b1c1916600185901b1785556136ce565b5f85815260208120601f198616915b8281101561376657888601518255948401946001909101908401613747565b508582101561378357878501515f19600388901b60f8161c191681555b5050505050600190811b01905550565b61379c8661304b565b85815284602082015283604082015260a060608201525f6137c060a0830185613096565b90508260808301529695505050505050565b5f60208083850312156137e3575f80fd5b825167ffffffffffffffff808211156137fa575f80fd5b818501915085601f83011261380d575f80fd5b81518181111561381f5761381f6131b0565b8060051b91506138308483016131c4565b8181529183018401918481019088841115613849575f80fd5b938501935b838510156138675784518252938501939085019061384e565b98975050505050505050565b634e487b7160e01b5f52603260045260245ffd5b5f60018201613898576138986135fb565b5060010190565b5f82516138b0818460208701613074565b9190910192915050565b8082028115828204841417610dec57610dec6135fb565b634e487b7160e01b5f52601260045260245ffd5b5f826138f3576138f36138d1565b500490565b8082025f8212600160ff1b84141615613913576139136135fb565b8181058314821517610dec57610dec6135fb565b5f82613935576139356138d1565b600160ff1b82145f198414161561394e5761394e6135fb565b500590565b5f80835461396081613527565b60018281168015613978576001811461398d576139b9565b60ff19841687528215158302870194506139b9565b875f526020805f205f5b858110156139b05781548a820152908401908201613997565b50505082870194505b50929695505050505050565b8082018281125f8312801582168215821617156139e4576139e46135fb565b50509291505056fea2646970667358221220ae7789483f4b8672ddd8fc445b98553da3c370e8934249471485fc829ccecac364736f6c63430008140033bb7b4a454dc3493923482f07822329ed19e8244eff582cc204f8554c3620c3fd","linkReferences":{}},"methodIdentifiers":{"LIQUIDATION_THRESHOLD()":"90a8ae9b","MAX_COLLATERAL()":"44cbe885","MIN_COLLATERAL()":"fa779648","ROUND_DURATION()":"6641ea08","addAsset(string)":"a7c6b52e","agentNFT()":"3fd773e9","agents(uint256)":"513856c8","assetPrices(string)":"f9172888","battleRounds(uint256)":"d38f34d0","calculateAgentCurrentPnL(uint256)":"76119bf1","currentRoundId()":"9cbe5efd","deployAgent(uint256,uint8,uint256,uint256,uint256,uint256,string)":"3bfa049e","deposit(uint256)":"b6b55f25","emergencyWithdraw(uint256)":"5312ea8e","exitAgent(uint256)":"2aa43faf","feeRecipient()":"46904840","getAgentInfo(uint256)":"19a6a6e9","getAllActiveAgents()":"d8ce4073","getCurrentRoundStats()":"a37b7381","getRoundInfo(uint256)":"88c3ffb0","getRoundLoots(uint256)":"623079e0","getSupportedAssets()":"e5406dbf","getUserActiveAgents(address)":"4b23a612","isAssetSupported(string)":"3932d1ab","owner()":"8da5cb5b","pause()":"8456cb59","paused()":"5c975abb","priceOracle()":"2630c12f","protocolFee()":"b0e21e8a","renounceOwnership()":"715018a6","roundLoots(uint256,uint256)":"b33bf8c3","setFeeRecipient(address)":"e74b981b","setProtocolFee(uint256)":"787dce3d","settleBattleRound(string,uint256)":"b3202b60","supportedAssets(uint256)":"c68dbb37","totalStaked()":"817b1cd2","transferOwnership(address)":"f2fde38b","unpause()":"3f4ba83a","usdtToken()":"a98ad46c","userBalances(address)":"26224c64","withdraw(uint256)":"2e1a7d4d"},"id":31}