{"abi":[{"type":"constructor","inputs":[{"name":"_usdtToken","type":"address","internalType":"address"},{"name":"_baseTokenURI","type":"string","internalType":"string"}],"stateMutability":"nonpayable"},{"type":"function","name":"MINT_COST","inputs":[],"outputs":[{"name":"","type":"uint256","internalType":"uint256"}],"stateMutability":"view"},{"type":"function","name":"agentAttributes","inputs":[{"name":"","type":"uint256","internalType":"uint256"}],"outputs":[{"name":"name","type":"string","internalType":"string"},{"name":"bio","type":"string","internalType":"string"},{"name":"strategy","type":"string","internalType":"string"},{"name":"avatarSeed","type":"string","internalType":"string"},{"name":"riskLevel","type":"uint8","internalType":"uint8"},{"name":"mintTime","type":"uint256","internalType":"uint256"},{"name":"minter","type":"address","internalType":"address"},{"name":"isActive","type":"bool","internalType":"bool"}],"stateMutability":"view"},{"type":"function","name":"agentIndexInUserArray","inputs":[{"name":"","type":"uint256","internalType":"uint256"}],"outputs":[{"name":"","type":"uint256","internalType":"uint256"}],"stateMutability":"view"},{"type":"function","name":"approve","inputs":[{"name":"to","type":"address","internalType":"address"},{"name":"tokenId","type":"uint256","internalType":"uint256"}],"outputs":[],"stateMutability":"nonpayable"},{"type":"function","name":"arenaContract","inputs":[],"outputs":[{"name":"","type":"address","internalType":"address"}],"stateMutability":"view"},{"type":"function","name":"balanceOf","inputs":[{"name":"owner","type":"address","internalType":"address"}],"outputs":[{"name":"","type":"uint256","internalType":"uint256"}],"stateMutability":"view"},{"type":"function","name":"baseTokenURI","inputs":[],"outputs":[{"name":"","type":"string","internalType":"string"}],"stateMutability":"view"},{"type":"function","name":"exists","inputs":[{"name":"tokenId","type":"uint256","internalType":"uint256"}],"outputs":[{"name":"","type":"bool","internalType":"bool"}],"stateMutability":"view"},{"type":"function","name":"getAgentsInfo","inputs":[{"name":"tokenIds","type":"uint256[]","internalType":"uint256[]"}],"outputs":[{"name":"","type":"tuple[]","internalType":"struct AgentNFT.AgentAttributes[]","components":[{"name":"name","type":"string","internalType":"string"},{"name":"bio","type":"string","internalType":"string"},{"name":"strategy","type":"string","internalType":"string"},{"name":"avatarSeed","type":"string","internalType":"string"},{"name":"riskLevel","type":"uint8","internalType":"uint8"},{"name":"mintTime","type":"uint256","internalType":"uint256"},{"name":"minter","type":"address","internalType":"address"},{"name":"isActive","type":"bool","internalType":"bool"}]}],"stateMutability":"view"},{"type":"function","name":"getApproved","inputs":[{"name":"tokenId","type":"uint256","internalType":"uint256"}],"outputs":[{"name":"","type":"address","internalType":"address"}],"stateMutability":"view"},{"type":"function","name":"getUserAgents","inputs":[{"name":"user","type":"address","internalType":"address"}],"outputs":[{"name":"","type":"uint256[]","internalType":"uint256[]"}],"stateMutability":"view"},{"type":"function","name":"isApprovedForAll","inputs":[{"name":"owner","type":"address","internalType":"address"},{"name":"operator","type":"address","internalType":"address"}],"outputs":[{"name":"","type":"bool","internalType":"bool"}],"stateMutability":"view"},{"type":"function","name":"mintAgent","inputs":[{"name":"_name","type":"string","internalType":"string"},{"name":"_bio","type":"string","internalType":"string"},{"name":"_strategy","type":"string","internalType":"string"},{"name":"_avatarSeed","type":"string","internalType":"string"},{"name":"_riskLevel","type":"uint8","internalType":"uint8"}],"outputs":[{"name":"","type":"uint256","internalType":"uint256"}],"stateMutability":"nonpayable"},{"type":"function","name":"name","inputs":[],"outputs":[{"name":"","type":"string","internalType":"string"}],"stateMutability":"view"},{"type":"function","name":"nextTokenId","inputs":[],"outputs":[{"name":"","type":"uint256","internalType":"uint256"}],"stateMutability":"view"},{"type":"function","name":"owner","inputs":[],"outputs":[{"name":"","type":"address","internalType":"address"}],"stateMutability":"view"},{"type":"function","name":"ownerOf","inputs":[{"name":"tokenId","type":"uint256","internalType":"uint256"}],"outputs":[{"name":"","type":"address","internalType":"address"}],"stateMutability":"view"},{"type":"function","name":"renounceOwnership","inputs":[],"outputs":[],"stateMutability":"nonpayable"},{"type":"function","name":"safeTransferFrom","inputs":[{"name":"from","type":"address","internalType":"address"},{"name":"to","type":"address","internalType":"address"},{"name":"tokenId","type":"uint256","internalType":"uint256"}],"outputs":[],"stateMutability":"nonpayable"},{"type":"function","name":"safeTransferFrom","inputs":[{"name":"from","type":"address","internalType":"address"},{"name":"to","type":"address","internalType":"address"},{"name":"tokenId","type":"uint256","internalType":"uint256"},{"name":"data","type":"bytes","internalType":"bytes"}],"outputs":[],"stateMutability":"nonpayable"},{"type":"function","name":"setApprovalForAll","inputs":[{"name":"operator","type":"address","internalType":"address"},{"name":"approved","type":"bool","internalType":"bool"}],"outputs":[],"stateMutability":"nonpayable"},{"type":"function","name":"setArenaContract","inputs":[{"name":"_arenaContract","type":"address","internalType":"address"}],"outputs":[],"stateMutability":"nonpayable"},{"type":"function","name":"setBaseTokenURI","inputs":[{"name":"_baseTokenURI","type":"string","internalType":"string"}],"outputs":[],"stateMutability":"nonpayable"},{"type":"function","name":"supportsInterface","inputs":[{"name":"interfaceId","type":"bytes4","internalType":"bytes4"}],"outputs":[{"name":"","type":"bool","internalType":"bool"}],"stateMutability":"view"},{"type":"function","name":"symbol","inputs":[],"outputs":[{"name":"","type":"string","internalType":"string"}],"stateMutability":"view"},{"type":"function","name":"tokenByIndex","inputs":[{"name":"index","type":"uint256","internalType":"uint256"}],"outputs":[{"name":"","type":"uint256","internalType":"uint256"}],"stateMutability":"view"},{"type":"function","name":"tokenOfOwnerByIndex","inputs":[{"name":"owner","type":"address","internalType":"address"},{"name":"index","type":"uint256","internalType":"uint256"}],"outputs":[{"name":"","type":"uint256","internalType":"uint256"}],"stateMutability":"view"},{"type":"function","name":"tokenURI","inputs":[{"name":"tokenId","type":"uint256","internalType":"uint256"}],"outputs":[{"name":"","type":"string","internalType":"string"}],"stateMutability":"view"},{"type":"function","name":"totalSupply","inputs":[],"outputs":[{"name":"","type":"uint256","internalType":"uint256"}],"stateMutability":"view"},{"type":"function","name":"transferFrom","inputs":[{"name":"from","type":"address","internalType":"address"},{"name":"to","type":"address","internalType":"address"},{"name":"tokenId","type":"uint256","internalType":"uint256"}],"outputs":[],"stateMutability":"nonpayable"},{"type":"function","name":"transferOwnership","inputs":[{"name":"newOwner","type":"address","internalType":"address"}],"outputs":[],"stateMutability":"nonpayable"},{"type":"function","name":"updateAgentStatus","inputs":[{"name":"tokenId","type":"uint256","internalType":"uint256"},{"name":"isActive","type":"bool","internalType":"bool"}],"outputs":[],"stateMutability":"nonpayable"},{"type":"function","name":"usdtToken","inputs":[],"outputs":[{"name":"","type":"address","internalType":"address"}],"stateMutability":"view"},{"type":"function","name":"userAgents","inputs":[{"name":"","type":"address","internalType":"address"},{"name":"","type":"uint256","internalType":"uint256"}],"outputs":[{"name":"","type":"uint256","internalType":"uint256"}],"stateMutability":"view"},{"type":"function","name":"withdrawUSDT","inputs":[{"name":"amount","type":"uint256","internalType":"uint256"}],"outputs":[],"stateMutability":"nonpayable"},{"type":"event","name":"AgentMinted","inputs":[{"name":"tokenId","type":"uint256","indexed":true,"internalType":"uint256"},{"name":"minter","type":"address","indexed":true,"internalType":"address"},{"name":"name","type":"string","indexed":false,"internalType":"string"},{"name":"riskLevel","type":"uint8","indexed":false,"internalType":"uint8"},{"name":"cost","type":"uint256","indexed":false,"internalType":"uint256"}],"anonymous":false},{"type":"event","name":"AgentStatusUpdated","inputs":[{"name":"tokenId","type":"uint256","indexed":true,"internalType":"uint256"},{"name":"isActive","type":"bool","indexed":false,"internalType":"bool"}],"anonymous":false},{"type":"event","name":"Approval","inputs":[{"name":"owner","type":"address","indexed":true,"internalType":"address"},{"name":"approved","type":"address","indexed":true,"internalType":"address"},{"name":"tokenId","type":"uint256","indexed":true,"internalType":"uint256"}],"anonymous":false},{"type":"event","name":"ApprovalForAll","inputs":[{"name":"owner","type":"address","indexed":true,"internalType":"address"},{"name":"operator","type":"address","indexed":true,"internalType":"address"},{"name":"approved","type":"bool","indexed":false,"internalType":"bool"}],"anonymous":false},{"type":"event","name":"ArenaContractUpdated","inputs":[{"name":"oldArena","type":"address","indexed":true,"internalType":"address"},{"name":"newArena","type":"address","indexed":true,"internalType":"address"}],"anonymous":false},{"type":"event","name":"BatchMetadataUpdate","inputs":[{"name":"_fromTokenId","type":"uint256","indexed":false,"internalType":"uint256"},{"name":"_toTokenId","type":"uint256","indexed":false,"internalType":"uint256"}],"anonymous":false},{"type":"event","name":"MetadataUpdate","inputs":[{"name":"_tokenId","type":"uint256","indexed":false,"internalType":"uint256"}],"anonymous":false},{"type":"event","name":"OwnershipTransferred","inputs":[{"name":"previousOwner","type":"address","indexed":true,"internalType":"address"},{"name":"newOwner","type":"address","indexed":true,"internalType":"address"}],"anonymous":false},{"type":"event","name":"Transfer","inputs":[{"name":"from","type":"address","indexed":true,"internalType":"address"},{"name":"to","type":"address","indexed":true,"internalType":"address"},{"name":"tokenId","type":"uint256","indexed":true,"internalType":"uint256"}],"anonymous":false},{"type":"error","name":"ERC721EnumerableForbiddenBatchMint","inputs":[]},{"type":"error","name":"ERC721IncorrectOwner","inputs":[{"name":"sender","type":"address","internalType":"address"},{"name":"tokenId","type":"uint256","internalType":"uint256"},{"name":"owner","type":"address","internalType":"address"}]},{"type":"error","name":"ERC721InsufficientApproval","inputs":[{"name":"operator","type":"address","internalType":"address"},{"name":"tokenId","type":"uint256","internalType":"uint256"}]},{"type":"error","name":"ERC721InvalidApprover","inputs":[{"name":"approver","type":"address","internalType":"address"}]},{"type":"error","name":"ERC721InvalidOperator","inputs":[{"name":"operator","type":"address","internalType":"address"}]},{"type":"error","name":"ERC721InvalidOwner","inputs":[{"name":"owner","type":"address","internalType":"address"}]},{"type":"error","name":"ERC721InvalidReceiver","inputs":[{"name":"receiver","type":"address","internalType":"address"}]},{"type":"error","name":"ERC721InvalidSender","inputs":[{"name":"sender","type":"address","internalType":"address"}]},{"type":"error","name":"ERC721NonexistentToken","inputs":[{"name":"tokenId","type":"uint256","internalType":"uint256"}]},{"type":"error","name":"ERC721OutOfBoundsIndex","inputs":[{"name":"owner","type":"address","internalType":"address"},{"name":"index","type":"uint256","internalType":"uint256"}]},{"type":"error","name":"OwnableInvalidOwner","inputs":[{"name":"owner","type":"address","internalType":"address"}]},{"type":"error","name":"OwnableUnauthorizedAccount","inputs":[{"name":"account","type":"address","internalType":"address"}]},{"type":"error","name":"ReentrancyGuardReentrantCall","inputs":[]}],"bytecode":{"object":"0x6080604052600160105534801562000015575f80fd5b5060405162002f0838038062002f088339810160408190526200003891620001cf565b336040518060400160405280600c81526020016b10525c195c9c081059d95b9d60a21b8152506040518060400160405280600781526020016610525051d1539560ca1b815250815f90816200008e919062000349565b5060016200009d828262000349565b5050506001600160a01b038116620000cf57604051631e4fbdf760e01b81525f60048201526024015b60405180910390fd5b620000da816200016a565b506001600c556001600160a01b038216620001385760405162461bcd60e51b815260206004820152601e60248201527f4167656e744e46543a20496e76616c69642055534454206164647265737300006044820152606401620000c6565b601280546001600160a01b0319166001600160a01b038416179055601362000161828262000349565b50505062000411565b600b80546001600160a01b038381166001600160a01b0319831681179093556040519116919082907f8be0079c531659141344cd1fd0a4f28419497f9722a3daafe3b4186f6b6457e0905f90a35050565b634e487b7160e01b5f52604160045260245ffd5b5f8060408385031215620001e1575f80fd5b82516001600160a01b0381168114620001f8575f80fd5b602084810151919350906001600160401b038082111562000217575f80fd5b818601915086601f8301126200022b575f80fd5b815181811115620002405762000240620001bb565b604051601f8201601f19908116603f011681019083821181831017156200026b576200026b620001bb565b81604052828152898684870101111562000283575f80fd5b5f93505b82841015620002a6578484018601518185018701529285019262000287565b5f8684830101528096505050505050509250929050565b600181811c90821680620002d257607f821691505b602082108103620002f157634e487b7160e01b5f52602260045260245ffd5b50919050565b601f82111562000344575f81815260208120601f850160051c810160208610156200031f5750805b601f850160051c820191505b8181101562000340578281556001016200032b565b5050505b505050565b81516001600160401b03811115620003655762000365620001bb565b6200037d81620003768454620002bd565b84620002f7565b602080601f831160018114620003b3575f84156200039b5750858301515b5f19600386901b1c1916600185901b17855562000340565b5f85815260208120601f198616915b82811015620003e357888601518255948401946001909101908401620003c2565b50858210156200040157878501515f19600388901b60f8161c191681555b5050505050600190811b01905550565b612ae9806200041f5f395ff3fe608060405234801561000f575f80fd5b5060043610610208575f3560e01c80635ea9867b1161011f578063b88d4fde116100a9578063c87b56dd11610079578063c87b56dd14610472578063d547cfb714610485578063e11c07311461048d578063e985e9c5146104b4578063f2fde38b146104c7575f80fd5b8063b88d4fde14610422578063bb4298b914610435578063c662e48114610454578063c68d84f51461045f575f80fd5b806375794a3c116100ef57806375794a3c146103da5780638da5cb5b146103e357806395d89b41146103f4578063a22cb465146103fc578063a98ad46c1461040f575f80fd5b80635ea9867b1461038c5780636352211e146103ac57806370a08231146103bf578063715018a6146103d2575f80fd5b80632f745c59116101a05780633ea521ef116101705780633ea521ef1461032d57806342842e0e146103405780634f558e79146103535780634f6ccce71461036657806351ca9ff914610379575f80fd5b80632f745c59146102d457806330176e13146102e7578063368e0ed8146102fa5780633d46519d1461030d575f80fd5b8063095ea7b3116101db578063095ea7b31461028757806318160ddd1461029c57806323b872dd146102ae578063262eba34146102c1575f80fd5b806301ffc9a71461020c57806306fdde0314610234578063081812fc14610249578063082a8c4e14610274575b5f80fd5b61021f61021a36600461220f565b6104da565b60405190151581526020015b60405180910390f35b61023c6104ea565b60405161022b9190612277565b61025c610257366004612289565b610579565b6040516001600160a01b03909116815260200161022b565b60115461025c906001600160a01b031681565b61029a6102953660046122bb565b6105a0565b005b6008545b60405190815260200161022b565b61029a6102bc3660046122e3565b6105af565b6102a06102cf3660046123d4565b61063d565b6102a06102e23660046122bb565b610924565b61029a6102f5366004612493565b610987565b61029a6103083660046124c5565b61099b565b61032061031b3660046124c5565b610a4a565b60405161022b91906124de565b61029a61033b366004612289565b610ab3565b61029a61034e3660046122e3565b610b4c565b61021f610361366004612289565b610b6b565b6102a0610374366004612289565b610b75565b6102a06103873660046122bb565b610bca565b61039f61039a366004612521565b610bf5565b60405161022b91906125c2565b61025c6103ba366004612289565b610f90565b6102a06103cd3660046124c5565b610f9a565b61029a610fdf565b6102a060105481565b600b546001600160a01b031661025c565b61023c610ff2565b61029a61040a3660046126c7565b611001565b60125461025c906001600160a01b031681565b61029a6104303660046126fc565b61100c565b6102a0610443366004612289565b600f6020525f908152604090205481565b6102a06305f5e10081565b61029a61046d366004612773565b611024565b61023c610480366004612289565b61113c565b61023c611147565b6104a061049b366004612289565b6111d3565b60405161022b989796959493929190612796565b61021f6104c236600461281b565b61143d565b61029a6104d53660046124c5565b61146a565b5f6104e4826114a7565b92915050565b60605f80546104f89061284c565b80601f01602080910402602001604051908101604052809291908181526020018280546105249061284c565b801561056f5780601f106105465761010080835404028352916020019161056f565b820191905f5260205f20905b81548152906001019060200180831161055257829003601f168201915b5050505050905090565b5f610583826114cb565b505f828152600460205260409020546001600160a01b03166104e4565b6105ab828233611503565b5050565b6001600160a01b0382166105dd57604051633250574960e11b81525f60048201526024015b60405180910390fd5b5f6105e9838333611510565b9050836001600160a01b0316816001600160a01b031614610637576040516364283d7b60e01b81526001600160a01b03808616600483015260248201849052821660448201526064016105d4565b50505050565b5f61064661158c565b60018260ff161015801561065e575060048260ff1611155b6106aa5760405162461bcd60e51b815260206004820152601c60248201527f4167656e744e46543a20496e76616c6964207269736b206c6576656c0000000060448201526064016105d4565b5f86511180156106bc57506020865111155b6107085760405162461bcd60e51b815260206004820152601d60248201527f4167656e744e46543a20496e76616c6964206e616d65206c656e67746800000060448201526064016105d4565b6012546040516323b872dd60e01b81523360048201523060248201526305f5e10060448201526001600160a01b03909116906323b872dd906064016020604051808303815f875af115801561075f573d5f803e3d5ffd5b505050506040513d601f19601f820116820180604052508101906107839190612884565b50601080545f9182610794836128b3565b9190505590506107a433826115b6565b604080516101008101825288815260208082018990528183018890526060820187905260ff861660808301524260a08301523360c08301525f60e08301819052848152600d90915291909120815181906107fe9082612910565b50602082015160018201906108139082612910565b50604082015160028201906108289082612910565b506060820151600382019061083d9082612910565b50608082015160048201805460ff191660ff90921691909117905560a0820151600582015560c08201516006909101805460e0909301516001600160a01b039092166001600160a81b031990931692909217600160a01b91151591909102179055335f818152600e602081815260408084208054878652600f845282862081905593835260018401815584529220018390555182907f7b465e53eed25cd28badfb91a7713f19063c355effa2c3117e86705d52cd4b0690610907908b9088906305f5e100906129cc565b60405180910390a3905061091b6001600c55565b95945050505050565b5f61092e83610f9a565b821061095f5760405163295f44f760e21b81526001600160a01b0384166004820152602481018390526044016105d4565b506001600160a01b03919091165f908152600660209081526040808320938352929052205490565b61098f6115cf565b60136105ab8282612910565b6109a36115cf565b6001600160a01b0381166109f95760405162461bcd60e51b815260206004820152601960248201527f4167656e744e46543a20496e76616c696420616464726573730000000000000060448201526064016105d4565b601180546001600160a01b038381166001600160a01b0319831681179093556040519116919082907f4999626988300847e33b1adcd329fc61fad5dd03bf5688e44de8fd220d67e09c905f90a35050565b6001600160a01b0381165f908152600e6020908152604091829020805483518184028101840190945280845260609392830182828015610aa757602002820191905f5260205f20905b815481526020019060010190808311610a93575b50505050509050919050565b610abb6115cf565b6012546001600160a01b031663a9059cbb610ade600b546001600160a01b031690565b6040516001600160e01b031960e084901b1681526001600160a01b039091166004820152602481018490526044016020604051808303815f875af1158015610b28573d5f803e3d5ffd5b505050506040513d601f19601f820116820180604052508101906105ab9190612884565b610b6683838360405180602001604052805f81525061100c565b505050565b5f6104e4826115fc565b5f610b7f60085490565b8210610ba75760405163295f44f760e21b81525f6004820152602481018390526044016105d4565b60088281548110610bba57610bba6129f3565b905f5260205f2001549050919050565b600e602052815f5260405f208181548110610be3575f80fd5b905f5260205f20015f91509150505481565b60605f825167ffffffffffffffff811115610c1257610c1261231c565b604051908082528060200260200182016040528015610c9557816020015b610c82604051806101000160405280606081526020016060815260200160608152602001606081526020015f60ff1681526020015f81526020015f6001600160a01b031681526020015f151581525090565b815260200190600190039081610c305790505b5090505f5b8351811015610f8957600d5f858381518110610cb857610cb86129f3565b602002602001015181526020019081526020015f20604051806101000160405290815f82018054610ce89061284c565b80601f0160208091040260200160405190810160405280929190818152602001828054610d149061284c565b8015610d5f5780601f10610d3657610100808354040283529160200191610d5f565b820191905f5260205f20905b815481529060010190602001808311610d4257829003601f168201915b50505050508152602001600182018054610d789061284c565b80601f0160208091040260200160405190810160405280929190818152602001828054610da49061284c565b8015610def5780601f10610dc657610100808354040283529160200191610def565b820191905f5260205f20905b815481529060010190602001808311610dd257829003601f168201915b50505050508152602001600282018054610e089061284c565b80601f0160208091040260200160405190810160405280929190818152602001828054610e349061284c565b8015610e7f5780601f10610e5657610100808354040283529160200191610e7f565b820191905f5260205f20905b815481529060010190602001808311610e6257829003601f168201915b50505050508152602001600382018054610e989061284c565b80601f0160208091040260200160405190810160405280929190818152602001828054610ec49061284c565b8015610f0f5780601f10610ee657610100808354040283529160200191610f0f565b820191905f5260205f20905b815481529060010190602001808311610ef257829003601f168201915b5050509183525050600482015460ff9081166020830152600583015460408301526006909201546001600160a01b0381166060830152600160a01b900490911615156080909101528251839083908110610f6b57610f6b6129f3565b60200260200101819052508080610f81906128b3565b915050610c9a565b5092915050565b5f6104e4826114cb565b5f6001600160a01b038216610fc4576040516322718ad960e21b81525f60048201526024016105d4565b506001600160a01b03165f9081526003602052604090205490565b610fe76115cf565b610ff05f61160f565b565b6060600180546104f89061284c565b6105ab338383611660565b6110178484846105af565b61063733858585856116fe565b6011546001600160a01b0316331461107e5760405162461bcd60e51b815260206004820152601d60248201527f4167656e744e46543a204f6e6c79206172656e612063616e2063616c6c00000060448201526064016105d4565b611087826115fc565b6110d35760405162461bcd60e51b815260206004820152601e60248201527f4167656e744e46543a204167656e7420646f6573206e6f74206578697374000060448201526064016105d4565b5f828152600d6020526040908190206006018054831515600160a01b0260ff60a01b199091161790555182907f6abccd5934f543a8605838d91768257de5521383bdb2aa5f286bc01dc94335639061113090841515815260200190565b60405180910390a25050565b60606104e482611826565b601380546111549061284c565b80601f01602080910402602001604051908101604052809291908181526020018280546111809061284c565b80156111cb5780601f106111a2576101008083540402835291602001916111cb565b820191905f5260205f20905b8154815290600101906020018083116111ae57829003601f168201915b505050505081565b600d6020525f90815260409020805481906111ed9061284c565b80601f01602080910402602001604051908101604052809291908181526020018280546112199061284c565b80156112645780601f1061123b57610100808354040283529160200191611264565b820191905f5260205f20905b81548152906001019060200180831161124757829003601f168201915b5050505050908060010180546112799061284c565b80601f01602080910402602001604051908101604052809291908181526020018280546112a59061284c565b80156112f05780601f106112c7576101008083540402835291602001916112f0565b820191905f5260205f20905b8154815290600101906020018083116112d357829003601f168201915b5050505050908060020180546113059061284c565b80601f01602080910402602001604051908101604052809291908181526020018280546113319061284c565b801561137c5780601f106113535761010080835404028352916020019161137c565b820191905f5260205f20905b81548152906001019060200180831161135f57829003601f168201915b5050505050908060030180546113919061284c565b80601f01602080910402602001604051908101604052809291908181526020018280546113bd9061284c565b80156114085780601f106113df57610100808354040283529160200191611408565b820191905f5260205f20905b8154815290600101906020018083116113eb57829003601f168201915b50505060048401546005850154600690950154939460ff918216949093506001600160a01b0381169250600160a01b90041688565b6001600160a01b039182165f90815260056020908152604080832093909416825291909152205460ff1690565b6114726115cf565b6001600160a01b03811661149b57604051631e4fbdf760e01b81525f60048201526024016105d4565b6114a48161160f565b50565b5f6001600160e01b03198216632483248360e11b14806104e457506104e482611929565b5f818152600260205260408120546001600160a01b0316806104e457604051637e27328960e01b8152600481018490526024016105d4565b610b66838383600161194d565b5f8061151d858585611a51565b90506001600160a01b03811615611538576115388185611b1c565b6001600160a01b03851615611584576001600160a01b0385165f908152600e602081815260408084208054898652600f8452918520829055928252600181018355918352909120018490555b949350505050565b6002600c54036115af57604051633ee5aeb560e01b815260040160405180910390fd5b6002600c55565b6105ab828260405180602001604052805f815250611c32565b600b546001600160a01b03163314610ff05760405163118cdaa760e01b81523360048201526024016105d4565b5f80821180156104e45750506010541190565b600b80546001600160a01b038381166001600160a01b0319831681179093556040519116919082907f8be0079c531659141344cd1fd0a4f28419497f9722a3daafe3b4186f6b6457e0905f90a35050565b6001600160a01b03821661169257604051630b61174360e31b81526001600160a01b03831660048201526024016105d4565b6001600160a01b038381165f81815260056020908152604080832094871680845294825291829020805460ff191686151590811790915591519182527f17307eab39ab6107e8899845ad3d59bd9653f200f220920489ca2b5937696c31910160405180910390a3505050565b6001600160a01b0383163b1561181f57604051630a85bd0160e11b81526001600160a01b0384169063150b7a0290611740908890889087908790600401612a07565b6020604051808303815f875af192505050801561177a575060408051601f3d908101601f1916820190925261177791810190612a43565b60015b6117e1573d8080156117a7576040519150601f19603f3d011682016040523d82523d5f602084013e6117ac565b606091505b5080515f036117d957604051633250574960e11b81526001600160a01b03851660048201526024016105d4565b805160208201fd5b6001600160e01b03198116630a85bd0160e11b1461181d57604051633250574960e11b81526001600160a01b03851660048201526024016105d4565b505b5050505050565b6060611831826114cb565b505f828152600a60205260408120805461184a9061284c565b80601f01602080910402602001604051908101604052809291908181526020018280546118769061284c565b80156118c15780601f10611898576101008083540402835291602001916118c1565b820191905f5260205f20905b8154815290600101906020018083116118a457829003601f168201915b505050505090505f6118dd60408051602081019091525f815290565b905080515f036118ee575092915050565b815115611920578082604051602001611908929190612a5e565b60405160208183030381529060405292505050919050565b61158484611c49565b5f6001600160e01b0319821663780e9d6360e01b14806104e457506104e482611cba565b808061196157506001600160a01b03821615155b15611a22575f611970846114cb565b90506001600160a01b0383161580159061199c5750826001600160a01b0316816001600160a01b031614155b80156119af57506119ad818461143d565b155b156119d85760405163a9fbf51f60e01b81526001600160a01b03841660048201526024016105d4565b8115611a205783856001600160a01b0316826001600160a01b03167f8c5be1e5ebec7d5bd14f71427d1e84f3dd0314c0f7b2291e5b200ac8c7c3b92560405160405180910390a45b505b50505f90815260046020526040902080546001600160a01b0319166001600160a01b0392909216919091179055565b5f80611a5e858585611d09565b90506001600160a01b038116611aba57611ab584600880545f838152600960205260408120829055600182018355919091527ff3f7a9fe364faab93b216da50a3214154f22a0a2b415b23a84c8169e8b636ee30155565b611add565b846001600160a01b0316816001600160a01b031614611add57611add8185611dfb565b6001600160a01b038516611af957611af484611e78565b611584565b846001600160a01b0316816001600160a01b031614611584576115848585611f1f565b5f818152600f60209081526040808320546001600160a01b0386168452600e909252822054909190611b5090600190612a8c565b9050808214611be1576001600160a01b0384165f908152600e60205260408120805483908110611b8257611b826129f3565b905f5260205f200154905080600e5f876001600160a01b03166001600160a01b031681526020019081526020015f208481548110611bc257611bc26129f3565b5f918252602080832090910192909255918252600f9052604090208290555b6001600160a01b0384165f908152600e60205260409020805480611c0757611c07612a9f565b5f828152602080822083015f19908101839055909201909255938152600f9093525050604081205550565b611c3c8383611f6d565b610b66335f8585856116fe565b6060611c54826114cb565b505f611c6a60408051602081019091525f815290565b90505f815111611c885760405180602001604052805f815250611cb3565b80611c9284611fce565b604051602001611ca3929190612a5e565b6040516020818303038152906040525b9392505050565b5f6001600160e01b031982166380ac58cd60e01b1480611cea57506001600160e01b03198216635b5e139f60e01b145b806104e457506301ffc9a760e01b6001600160e01b03198316146104e4565b5f828152600260205260408120546001600160a01b0390811690831615611d3557611d3581848661205e565b6001600160a01b03811615611d6f57611d505f855f8061194d565b6001600160a01b0381165f90815260036020526040902080545f190190555b6001600160a01b03851615611d9d576001600160a01b0385165f908152600360205260409020805460010190555b5f8481526002602052604080822080546001600160a01b0319166001600160a01b0389811691821790925591518793918516917fddf252ad1be2c89b69c2b068fc378daa952ba7f163c4a11628f55a4df523b3ef91a4949350505050565b5f611e0583610f9a565b5f838152600760209081526040808320546001600160a01b0388168452600690925290912091925090818314611e5a575f83815260208281526040808320548584528184208190558352600790915290208290555b5f938452600760209081526040808620869055938552525081205550565b6008545f90611e8990600190612a8c565b5f8381526009602052604081205460088054939450909284908110611eb057611eb06129f3565b905f5260205f20015490508060088381548110611ecf57611ecf6129f3565b5f918252602080832090910192909255828152600990915260408082208490558582528120556008805480611f0657611f06612a9f565b600190038181905f5260205f20015f9055905550505050565b5f6001611f2b84610f9a565b611f359190612a8c565b6001600160a01b039093165f908152600660209081526040808320868452825280832085905593825260079052919091209190915550565b6001600160a01b038216611f9657604051633250574960e11b81525f60048201526024016105d4565b5f611fa283835f611510565b90506001600160a01b03811615610b66576040516339e3563760e11b81525f60048201526024016105d4565b60605f611fda836120c2565b60010190505f8167ffffffffffffffff811115611ff957611ff961231c565b6040519080825280601f01601f191660200182016040528015612023576020820181803683370190505b5090508181016020015b5f19016f181899199a1a9b1b9c1cb0b131b232b360811b600a86061a8153600a850494508461202d57509392505050565b612069838383612199565b610b66576001600160a01b03831661209757604051637e27328960e01b8152600481018290526024016105d4565b60405163177e802f60e01b81526001600160a01b0383166004820152602481018290526044016105d4565b5f8072184f03e93ff9f4daa797ed6e38ed64bf6a1f0160401b83106121005772184f03e93ff9f4daa797ed6e38ed64bf6a1f0160401b830492506040015b6d04ee2d6d415b85acef8100000000831061212c576d04ee2d6d415b85acef8100000000830492506020015b662386f26fc10000831061214a57662386f26fc10000830492506010015b6305f5e1008310612162576305f5e100830492506008015b612710831061217657612710830492506004015b60648310612188576064830492506002015b600a83106104e45760010192915050565b5f6001600160a01b038316158015906115845750826001600160a01b0316846001600160a01b031614806121d257506121d2848461143d565b806115845750505f908152600460205260409020546001600160a01b03908116911614919050565b6001600160e01b0319811681146114a4575f80fd5b5f6020828403121561221f575f80fd5b8135611cb3816121fa565b5f5b8381101561224457818101518382015260200161222c565b50505f910152565b5f815180845261226381602086016020860161222a565b601f01601f19169290920160200192915050565b602081525f611cb3602083018461224c565b5f60208284031215612299575f80fd5b5035919050565b80356001600160a01b03811681146122b6575f80fd5b919050565b5f80604083850312156122cc575f80fd5b6122d5836122a0565b946020939093013593505050565b5f805f606084860312156122f5575f80fd5b6122fe846122a0565b925061230c602085016122a0565b9150604084013590509250925092565b634e487b7160e01b5f52604160045260245ffd5b604051601f8201601f1916810167ffffffffffffffff811182821017156123595761235961231c565b604052919050565b5f67ffffffffffffffff83111561237a5761237a61231c565b61238d601f8401601f1916602001612330565b90508281528383830111156123a0575f80fd5b828260208301375f602084830101529392505050565b5f82601f8301126123c5575f80fd5b611cb383833560208501612361565b5f805f805f60a086880312156123e8575f80fd5b853567ffffffffffffffff808211156123ff575f80fd5b61240b89838a016123b6565b96506020880135915080821115612420575f80fd5b61242c89838a016123b6565b95506040880135915080821115612441575f80fd5b61244d89838a016123b6565b94506060880135915080821115612462575f80fd5b5061246f888289016123b6565b925050608086013560ff81168114612485575f80fd5b809150509295509295909350565b5f602082840312156124a3575f80fd5b813567ffffffffffffffff8111156124b9575f80fd5b611584848285016123b6565b5f602082840312156124d5575f80fd5b611cb3826122a0565b602080825282518282018190525f9190848201906040850190845b81811015612515578351835292840192918401916001016124f9565b50909695505050505050565b5f6020808385031215612532575f80fd5b823567ffffffffffffffff80821115612549575f80fd5b818501915085601f83011261255c575f80fd5b81358181111561256e5761256e61231c565b8060051b915061257f848301612330565b8181529183018401918481019088841115612598575f80fd5b938501935b838510156125b65784358252938501939085019061259d565b98975050505050505050565b5f6020808301818452808551808352604092508286019150828160051b8701018488015f5b838110156126ac57603f198984030185528151610100815181865261260e8287018261224c565b915050888201518582038a870152612626828261224c565b915050878201518582038987015261263e828261224c565b91505060608083015186830382880152612658838261224c565b925050506080808301516126708288018260ff169052565b505060a0828101519086015260c0808301516001600160a01b03169086015260e0918201511515919094015293860193908601906001016125e7565b509098975050505050505050565b80151581146114a4575f80fd5b5f80604083850312156126d8575f80fd5b6126e1836122a0565b915060208301356126f1816126ba565b809150509250929050565b5f805f806080858703121561270f575f80fd5b612718856122a0565b9350612726602086016122a0565b925060408501359150606085013567ffffffffffffffff811115612748575f80fd5b8501601f81018713612758575f80fd5b61276787823560208401612361565b91505092959194509250565b5f8060408385031215612784575f80fd5b8235915060208301356126f1816126ba565b5f6101008083526127a98184018c61224c565b905082810360208401526127bd818b61224c565b905082810360408401526127d1818a61224c565b905082810360608401526127e5818961224c565b60ff979097166080840152505060a08101939093526001600160a01b039190911660c0830152151560e090910152949350505050565b5f806040838503121561282c575f80fd5b612835836122a0565b9150612843602084016122a0565b90509250929050565b600181811c9082168061286057607f821691505b60208210810361287e57634e487b7160e01b5f52602260045260245ffd5b50919050565b5f60208284031215612894575f80fd5b8151611cb3816126ba565b634e487b7160e01b5f52601160045260245ffd5b5f600182016128c4576128c461289f565b5060010190565b601f821115610b66575f81815260208120601f850160051c810160208610156128f15750805b601f850160051c820191505b8181101561181d578281556001016128fd565b815167ffffffffffffffff81111561292a5761292a61231c565b61293e81612938845461284c565b846128cb565b602080601f831160018114612971575f841561295a5750858301515b5f19600386901b1c1916600185901b17855561181d565b5f85815260208120601f198616915b8281101561299f57888601518255948401946001909101908401612980565b50858210156129bc57878501515f19600388901b60f8161c191681555b5050505050600190811b01905550565b606081525f6129de606083018661224c565b60ff9490941660208301525060400152919050565b634e487b7160e01b5f52603260045260245ffd5b6001600160a01b03858116825284166020820152604081018390526080606082018190525f90612a399083018461224c565b9695505050505050565b5f60208284031215612a53575f80fd5b8151611cb3816121fa565b5f8351612a6f81846020880161222a565b835190830190612a8381836020880161222a565b01949350505050565b818103818111156104e4576104e461289f565b634e487b7160e01b5f52603160045260245ffdfea2646970667358221220351cc656dbbf01e0921aea36bf85b9b04852990e2c89d7dad8e541331490b2de64736f6c63430008140033","linkReferences":{}},"methodIdentifiers":{"MINT_COST()":"c662e481","agentAttributes(uint256)":"e11c0731","agentIndexInUserArray(uint256)":"bb4298b9","approve(address,uint256)":"095ea7b3","arenaContract()":"082a8c4e","balanceOf(address)":"70a08231","baseTokenURI()":"d547cfb7","exists(uint256)":"4f558e79","getAgentsInfo(uint256[])":"5ea9867b","getApproved(uint256)":"081812fc","getUserAgents(address)":"3d46519d","isApprovedForAll(address,address)":"e985e9c5","mintAgent(string,string,string,string,uint8)":"262eba34","name()":"06fdde03","nextTokenId()":"75794a3c","owner()":"8da5cb5b","ownerOf(uint256)":"6352211e","renounceOwnership()":"715018a6","safeTransferFrom(address,address,uint256)":"42842e0e","safeTransferFrom(address,address,uint256,bytes)":"b88d4fde","setApprovalForAll(address,bool)":"a22cb465","setArenaContract(address)":"368e0ed8","setBaseTokenURI(string)":"30176e13","supportsInterface(bytes4)":"01ffc9a7","symbol()":"95d89b41","tokenByIndex(uint256)":"4f6ccce7","tokenOfOwnerByIndex(address,uint256)":"2f745c59","tokenURI(uint256)":"c87b56dd","totalSupply()":"18160ddd","transferFrom(address,address,uint256)":"23b872dd","transferOwnership(address)":"f2fde38b","updateAgentStatus(uint256,bool)":"c68d84f5","usdtToken()":"a98ad46c","userAgents(address,uint256)":"51ca9ff9","withdrawUSDT(uint256)":"3ea521ef"},"id":32}