{"abi":[{"type":"constructor","inputs":[],"stateMutability":"nonpayable"},{"type":"function","name":"DEFAULT_HISTORY_SIZE","inputs":[],"outputs":[{"name":"","type":"uint256","internalType":"uint256"}],"stateMutability":"view"},{"type":"function","name":"MAX_PRICE_AGE","inputs":[],"outputs":[{"name":"","type":"uint256","internalType":"uint256"}],"stateMutability":"view"},{"type":"function","name":"PRICE_PRECISION","inputs":[],"outputs":[{"name":"","type":"uint256","internalType":"uint256"}],"stateMutability":"view"},{"type":"function","name":"addAsset","inputs":[{"name":"asset","type":"string","internalType":"string"}],"outputs":[],"stateMutability":"nonpayable"},{"type":"function","name":"addUpdater","inputs":[{"name":"updater","type":"address","internalType":"address"}],"outputs":[],"stateMutability":"nonpayable"},{"type":"function","name":"assetList","inputs":[{"name":"","type":"uint256","internalType":"uint256"}],"outputs":[{"name":"","type":"string","internalType":"string"}],"stateMutability":"view"},{"type":"function","name":"authorizedUpdaters","inputs":[{"name":"","type":"address","internalType":"address"}],"outputs":[{"name":"","type":"bool","internalType":"bool"}],"stateMutability":"view"},{"type":"function","name":"batchUpdatePrices","inputs":[{"name":"assets","type":"string[]","internalType":"string[]"},{"name":"prices","type":"uint256[]","internalType":"uint256[]"}],"outputs":[],"stateMutability":"nonpayable"},{"type":"function","name":"getAllAssets","inputs":[],"outputs":[{"name":"","type":"string[]","internalType":"string[]"}],"stateMutability":"view"},{"type":"function","name":"getPrice","inputs":[{"name":"asset","type":"string","internalType":"string"}],"outputs":[{"name":"","type":"uint256","internalType":"uint256"}],"stateMutability":"view"},{"type":"function","name":"getPriceAge","inputs":[{"name":"asset","type":"string","internalType":"string"}],"outputs":[{"name":"","type":"uint256","internalType":"uint256"}],"stateMutability":"view"},{"type":"function","name":"getPriceChange","inputs":[{"name":"asset","type":"string","internalType":"string"},{"name":"timeframe","type":"uint256","internalType":"uint256"}],"outputs":[{"name":"","type":"int256","internalType":"int256"}],"stateMutability":"view"},{"type":"function","name":"getPriceHistory","inputs":[{"name":"asset","type":"string","internalType":"string"}],"outputs":[{"name":"prices","type":"uint256[]","internalType":"uint256[]"},{"name":"timestamps","type":"uint256[]","internalType":"uint256[]"}],"stateMutability":"view"},{"type":"function","name":"isAssetSupported","inputs":[{"name":"asset","type":"string","internalType":"string"}],"outputs":[{"name":"","type":"bool","internalType":"bool"}],"stateMutability":"view"},{"type":"function","name":"isAuthorized","inputs":[{"name":"updater","type":"address","internalType":"address"}],"outputs":[{"name":"","type":"bool","internalType":"bool"}],"stateMutability":"view"},{"type":"function","name":"latestPrices","inputs":[{"name":"","type":"string","internalType":"string"}],"outputs":[{"name":"price","type":"uint256","internalType":"uint256"},{"name":"timestamp","type":"uint256","internalType":"uint256"},{"name":"blockNumber","type":"uint256","internalType":"uint256"}],"stateMutability":"view"},{"type":"function","name":"owner","inputs":[],"outputs":[{"name":"","type":"address","internalType":"address"}],"stateMutability":"view"},{"type":"function","name":"priceHistories","inputs":[{"name":"","type":"string","internalType":"string"}],"outputs":[{"name":"maxHistory","type":"uint256","internalType":"uint256"}],"stateMutability":"view"},{"type":"function","name":"removeAsset","inputs":[{"name":"asset","type":"string","internalType":"string"}],"outputs":[],"stateMutability":"nonpayable"},{"type":"function","name":"removeUpdater","inputs":[{"name":"updater","type":"address","internalType":"address"}],"outputs":[],"stateMutability":"nonpayable"},{"type":"function","name":"renounceOwnership","inputs":[],"outputs":[],"stateMutability":"nonpayable"},{"type":"function","name":"setMaxPriceAge","inputs":[{"name":"newMaxAge","type":"uint256","internalType":"uint256"}],"outputs":[],"stateMutability":"nonpayable"},{"type":"function","name":"supportedAssets","inputs":[{"name":"","type":"string","internalType":"string"}],"outputs":[{"name":"","type":"bool","internalType":"bool"}],"stateMutability":"view"},{"type":"function","name":"transferOwnership","inputs":[{"name":"newOwner","type":"address","internalType":"address"}],"outputs":[],"stateMutability":"nonpayable"},{"type":"function","name":"updatePrice","inputs":[{"name":"asset","type":"string","internalType":"string"},{"name":"price","type":"uint256","internalType":"uint256"}],"outputs":[],"stateMutability":"nonpayable"},{"type":"event","name":"AssetAdded","inputs":[{"name":"asset","type":"string","indexed":false,"internalType":"string"}],"anonymous":false},{"type":"event","name":"AssetRemoved","inputs":[{"name":"asset","type":"string","indexed":false,"internalType":"string"}],"anonymous":false},{"type":"event","name":"MaxPriceAgeUpdated","inputs":[{"name":"oldAge","type":"uint256","indexed":false,"internalType":"uint256"},{"name":"newAge","type":"uint256","indexed":false,"internalType":"uint256"}],"anonymous":false},{"type":"event","name":"OwnershipTransferred","inputs":[{"name":"previousOwner","type":"address","indexed":true,"internalType":"address"},{"name":"newOwner","type":"address","indexed":true,"internalType":"address"}],"anonymous":false},{"type":"event","name":"PriceUpdated","inputs":[{"name":"asset","type":"string","indexed":true,"internalType":"string"},{"name":"price","type":"uint256","indexed":false,"internalType":"uint256"},{"name":"timestamp","type":"uint256","indexed":false,"internalType":"uint256"},{"name":"updater","type":"address","indexed":false,"internalType":"address"}],"anonymous":false},{"type":"event","name":"UpdaterAdded","inputs":[{"name":"updater","type":"address","indexed":false,"internalType":"address"}],"anonymous":false},{"type":"event","name":"UpdaterRemoved","inputs":[{"name":"updater","type":"address","indexed":false,"internalType":"address"}],"anonymous":false},{"type":"error","name":"OwnableInvalidOwner","inputs":[{"name":"owner","type":"address","internalType":"address"}]},{"type":"error","name":"OwnableUnauthorizedAccount","inputs":[{"name":"account","type":"address","internalType":"address"}]}],"bytecode":{"object":"0x608060405234801562000010575f80fd5b5033806200003857604051631e4fbdf760e01b81525f60048201526024015b60405180910390fd5b6200004381620000de565b5060408051808201909152600381526242544360e81b602082015262000069906200012d565b60408051808201909152600381526208aa8960eb1b60208201526200008e906200012d565b60408051808201909152600381526214d3d360ea1b6020820152620000b3906200012d565b60408051808201909152600381526226a7a760e91b6020820152620000d8906200012d565b62000578565b5f80546001600160a01b038381166001600160a01b0319831681178455604051919092169283917f8be0079c531659141344cd1fd0a4f28419497f9722a3daafe3b4186f6b6457e09190a35050565b6003816040516200013f9190620003bf565b9081526040519081900360200190205460ff1615620001ab5760405162461bcd60e51b815260206004820152602160248201527f50726963654f7261636c653a20417373657420616c72656164792065786973746044820152607360f81b60648201526084016200002f565b5f815111620001fd5760405162461bcd60e51b815260206004820152601a60248201527f50726963654f7261636c653a20496e76616c696420617373657400000000000060448201526064016200002f565b6001600382604051620002119190620003bf565b908152604051908190036020019020805491151560ff19909216919091179055600580546001810182555f919091527f036b6384b5eca791c62761152d0c79bb0604c104a5fb6f4eb0703f3154bb3db0016200026e82826200047c565b50604080515f6060820181815260808301845282528251908152602081810184528201526064818301529051600290620002aa908490620003bf565b90815260200160405180910390205f820151815f019080519060200190620002d492919062000337565b506020828101518051620002ef926001850192019062000337565b50604091820151600290910155517f724df0596d75f7cca867e95fdadd6c1397e175dc9a54f0a3f46167ec8577ecae906200032c90839062000544565b60405180910390a150565b828054828255905f5260205f2090810192821562000373579160200282015b828111156200037357825182559160200191906001019062000356565b506200038192915062000385565b5090565b5b8082111562000381575f815560010162000386565b5f5b83811015620003b75781810151838201526020016200039d565b50505f910152565b5f8251620003d28184602087016200039b565b9190910192915050565b634e487b7160e01b5f52604160045260245ffd5b600181811c908216806200040557607f821691505b6020821081036200042457634e487b7160e01b5f52602260045260245ffd5b50919050565b601f82111562000477575f81815260208120601f850160051c81016020861015620004525750805b601f850160051c820191505b8181101562000473578281556001016200045e565b5050505b505050565b81516001600160401b03811115620004985762000498620003dc565b620004b081620004a98454620003f0565b846200042a565b602080601f831160018114620004e6575f8415620004ce5750858301515b5f19600386901b1c1916600185901b17855562000473565b5f85815260208120601f198616915b828110156200051657888601518255948401946001909101908401620004f5565b50858210156200053457878501515f19600388901b60f8161c191681555b5050505050600190811b01905550565b602081525f8251806020840152620005648160408501602087016200039b565b601f01601f19169190910160400192915050565b611dfe80620005865f395ff3fe608060405234801561000f575f80fd5b506004361061016d575f3560e01c8063715018a6116100d9578063a0b4b30111610093578063d32cc5ab1161006e578063d32cc5ab14610391578063f2fde38b146103c2578063fcecd14a146103d5578063fe9fbb80146103e8575f80fd5b8063a0b4b30114610330578063a7c6b52e14610350578063bfb9ffac14610363575f80fd5b8063715018a6146102c5578063759af9ec146102cd5780638da5cb5b146102e05780638ff29cfe146102fa57806395082d251461031c5780639d7f7e8614610327575f80fd5b8063461c0a551161012a578063461c0a55146102185780634a432a461461022b578063524f38891461023e57806356447ce81461025157806363df7a14146102645780637043c70e1461026c575f80fd5b806304b07a5e1461017157806322e39848146101865780632acada4d146101ac5780633932d1ab146101c15780633dbc43b5146101e457806343d24a5e14610205575b5f80fd5b61018461017f366004611629565b6103fb565b005b610199610194366004611707565b61045a565b6040519081526020015b60405180910390f35b6101b4610511565b6040516101a3919061178e565b6101d46101cf366004611707565b6105e5565b60405190151581526020016101a3565b6101f76101f2366004611707565b61060f565b6040516101a3929190611827565b610184610213366004611629565b610725565b610199610226366004611854565b6107d6565b610184610239366004611854565b6109d8565b61019961024c366004611707565b610a99565b61018461025f366004611896565b610bd3565b610199606481565b6102aa61027a366004611707565b80516020818301810180516001808352938301929094019190912092905281549082015460029092015490919083565b604080519384526020840192909252908201526060016101a3565b610184610c6c565b6101846102db366004611707565b610c7f565b5f546040516001600160a01b0390911681526020016101a3565b6101d4610308366004611629565b60046020525f908152604090205460ff1681565b6101996305f5e10081565b61019961012c81565b61034361033e366004611896565b610e04565b6040516101a391906118ad565b61018461035e366004611707565b610eaa565b6101d4610371366004611707565b805160208183018101805160038252928201919093012091525460ff1681565b61019961039f366004611707565b805160208183018101805160028083529383019290940191909120929052015481565b6101846103d0366004611629565b610ebe565b6101846103e336600461194a565b610ef8565b6101d46103f6366004611629565b611084565b6104036110bc565b6001600160a01b0381165f81815260046020908152604091829020805460ff1916905590519182527f209d819a9ec655e89f2b2b9d65c8a78879b45a8f20d1941d69c5fe6dc21bcb6291015b60405180910390a150565b5f8160038160405161046c9190611a17565b9081526040519081900360200190205460ff166104a45760405162461bcd60e51b815260040161049b90611a32565b60405180910390fd5b5f6001846040516104b59190611a17565b9081526040805160209281900383018120606082018352805482526001810154938201849052600201549181019190915291505f036104f8575f1992505061050b565b60208101516105079042611a7b565b9250505b50919050565b60606005805480602002602001604051908101604052809291908181526020015f905b828210156105dc578382905f5260205f2001805461055190611a8e565b80601f016020809104026020016040519081016040528092919081815260200182805461057d90611a8e565b80156105c85780601f1061059f576101008083540402835291602001916105c8565b820191905f5260205f20905b8154815290600101906020018083116105ab57829003601f168201915b505050505081526020019060010190610534565b50505050905090565b5f6003826040516105f69190611a17565b9081526040519081900360200190205460ff1692915050565b606080826003816040516106239190611a17565b9081526040519081900360200190205460ff166106525760405162461bcd60e51b815260040161049b90611a32565b5f6002856040516106639190611a17565b90815260200160405180910390209050805f0181600101818054806020026020016040519081016040528092919081815260200182805480156106c357602002820191905f5260205f20905b8154815260200190600101908083116106af575b505050505091508080548060200260200160405190810160405280929190818152602001828054801561071357602002820191905f5260205f20905b8154815260200190600101908083116106ff575b50505050509050935093505050915091565b61072d6110bc565b6001600160a01b0381166107835760405162461bcd60e51b815260206004820152601c60248201527f50726963654f7261636c653a20496e76616c6964206164647265737300000000604482015260640161049b565b6001600160a01b0381165f81815260046020908152604091829020805460ff1916600117905590519182527f23a38f89c31ff6329bf86f3863cfa2ad8fc1462c40dbf907dbbebb8f9cb237ec910161044f565b5f826003816040516107e89190611a17565b9081526040519081900360200190205460ff166108175760405162461bcd60e51b815260040161049b90611a32565b5f6001856040516108289190611a17565b9081526040805160209281900383018120606082018352805482526001810154938201849052600201549181019190915291506108a75760405162461bcd60e51b815260206004820181905260248201527f50726963654f7261636c653a205072696365206e6f7420617661696c61626c65604482015260640161049b565b5f6002866040516108b89190611a17565b908152602001604051809103902090505f8583602001516108d99190611a7b565b60018301549091505f905b80156109585782846001016001836108fc9190611a7b565b8154811061090c5761090c611ac0565b905f5260205f200154116109465783610926600183611a7b565b8154811061093657610936611ac0565b905f5260205f2001549150610958565b8061095081611ad4565b9150506108e4565b50805f0361096c575f9550505050506109d1565b835181116109a45783518190610983908290611a7b565b61098f90612710611ae9565b6109999190611b00565b9550505050506109d1565b835181906109b29082611a7b565b6109be90612710611ae9565b6109c89190611b00565b61099990611b1f565b5092915050565b335f9081526004602052604090205460ff16806109fe57505f546001600160a01b031633145b610a4a5760405162461bcd60e51b815260206004820152601b60248201527f50726963654f7261636c653a204e6f7420617574686f72697a65640000000000604482015260640161049b565b81600381604051610a5b9190611a17565b9081526040519081900360200190205460ff16610a8a5760405162461bcd60e51b815260040161049b90611a32565b610a9483836110e8565b505050565b5f81600381604051610aab9190611a17565b9081526040519081900360200190205460ff16610ada5760405162461bcd60e51b815260040161049b90611a32565b5f600184604051610aeb9190611a17565b908152604080516020928190038301812060608201835280548252600181015493820184905260020154918101919091529150610b6a5760405162461bcd60e51b815260206004820181905260248201527f50726963654f7261636c653a205072696365206e6f7420617661696c61626c65604482015260640161049b565b61012c816020015142610b7d9190611a7b565b1115610bcb5760405162461bcd60e51b815260206004820152601a60248201527f50726963654f7261636c653a20507269636520746f6f206f6c64000000000000604482015260640161049b565b519392505050565b610bdb6110bc565b5f8111610c2a5760405162461bcd60e51b815260206004820152601860248201527f50726963654f7261636c653a20496e76616c6964206167650000000000000000604482015260640161049b565b6040805161012c80825260208201849052917f23d7699acdcc135096fefb30738c302da5792f78f39d038c1e7d74fd9c646cb291015b60405180910390a15050565b610c746110bc565b610c7d5f6111f3565b565b610c876110bc565b80600381604051610c989190611a17565b9081526040519081900360200190205460ff16610cc75760405162461bcd60e51b815260040161049b90611a32565b5f600383604051610cd89190611a17565b908152604051908190036020019020805491151560ff199092169190911790555f5b600554811015610dd457828051906020012060058281548110610d1f57610d1f611ac0565b905f5260205f2001604051610d349190611b39565b604051809103902003610dc25760058054610d5190600190611a7b565b81548110610d6157610d61611ac0565b905f5260205f200160058281548110610d7c57610d7c611ac0565b905f5260205f20019081610d909190611bf8565b506005805480610da257610da2611cd3565b600190038181905f5260205f20015f610dbb9190611595565b9055610dd4565b80610dcc81611ce7565b915050610cfa565b507f7704a686b2fb3541aea5ffdeb387f0119accdfafd1824299e97eb81dee7be83582604051610c6091906118ad565b60058181548110610e13575f80fd5b905f5260205f20015f915090508054610e2b90611a8e565b80601f0160208091040260200160405190810160405280929190818152602001828054610e5790611a8e565b8015610ea25780601f10610e7957610100808354040283529160200191610ea2565b820191905f5260205f20905b815481529060010190602001808311610e8557829003601f168201915b505050505081565b610eb26110bc565b610ebb81611242565b50565b610ec66110bc565b6001600160a01b038116610eef57604051631e4fbdf760e01b81525f600482015260240161049b565b610ebb816111f3565b335f9081526004602052604090205460ff1680610f1e57505f546001600160a01b031633145b610f6a5760405162461bcd60e51b815260206004820152601b60248201527f50726963654f7261636c653a204e6f7420617574686f72697a65640000000000604482015260640161049b565b8051825114610fc65760405162461bcd60e51b815260206004820152602260248201527f50726963654f7261636c653a204172726179206c656e677468206d69736d61746044820152610c6d60f31b606482015260840161049b565b5f5b8251811015610a94576003838281518110610fe557610fe5611ac0565b6020026020010151604051610ffa9190611a17565b9081526040519081900360200190205460ff16801561103157505f82828151811061102757611027611ac0565b6020026020010151115b156110725761107283828151811061104b5761104b611ac0565b602002602001015183838151811061106557611065611ac0565b60200260200101516110e8565b8061107c81611ce7565b915050610fc8565b6001600160a01b0381165f9081526004602052604081205460ff16806110b657505f546001600160a01b038381169116145b92915050565b5f546001600160a01b03163314610c7d5760405163118cdaa760e01b815233600482015260240161049b565b5f81116111375760405162461bcd60e51b815260206004820152601a60248201527f50726963654f7261636c653a20496e76616c6964207072696365000000000000604482015260640161049b565b6040518060600160405280828152602001428152602001438152506001836040516111629190611a17565b90815260200160405180910390205f820151815f0155602082015181600101556040820151816002015590505061119a82824261142f565b816040516111a89190611a17565b604080519182900382208383524260208401523383830152905190917f900bc43185b583874498236ca9f170c42ecd0041e7542810efceab0975117271919081900360600190a25050565b5f80546001600160a01b038381166001600160a01b0319831681178455604051919092169283917f8be0079c531659141344cd1fd0a4f28419497f9722a3daafe3b4186f6b6457e09190a35050565b6003816040516112529190611a17565b9081526040519081900360200190205460ff16156112bc5760405162461bcd60e51b815260206004820152602160248201527f50726963654f7261636c653a20417373657420616c72656164792065786973746044820152607360f81b606482015260840161049b565b5f81511161130c5760405162461bcd60e51b815260206004820152601a60248201527f50726963654f7261636c653a20496e76616c6964206173736574000000000000604482015260640161049b565b600160038260405161131e9190611a17565b908152604051908190036020019020805491151560ff19909216919091179055600580546001810182555f919091527f036b6384b5eca791c62761152d0c79bb0604c104a5fb6f4eb0703f3154bb3db0016113798282611cff565b50604080515f60608201818152608083018452825282519081526020818101845282015260648183015290516002906113b3908490611a17565b90815260200160405180910390205f820151815f0190805190602001906113db9291906115cc565b5060208281015180516113f492600185019201906115cc565b50604091820151600290910155517f724df0596d75f7cca867e95fdadd6c1397e175dc9a54f0a3f46167ec8577ecae9061044f9083906118ad565b5f6002846040516114409190611a17565b908152604051602091819003820190208054600180820183555f83815284812090920187905580830180549182018155825292902090910183905560028101548154919250101561158f575f5b815461149b90600190611a7b565b81101561154357816114ae826001611db5565b815481106114be576114be611ac0565b905f5260205f200154825f0182815481106114db576114db611ac0565b905f5260205f200181905550816001018160016114f89190611db5565b8154811061150857611508611ac0565b905f5260205f20015482600101828154811061152657611526611ac0565b5f918252602090912001558061153b81611ce7565b91505061148d565b50805481908061155557611555611cd3565b600190038181905f5260205f20015f905590558060010180548061157b5761157b611cd3565b600190038181905f5260205f20015f905590555b50505050565b5080546115a190611a8e565b5f825580601f106115b0575050565b601f0160209004905f5260205f2090810190610ebb9190611615565b828054828255905f5260205f20908101928215611605579160200282015b828111156116055782518255916020019190600101906115ea565b50611611929150611615565b5090565b5b80821115611611575f8155600101611616565b5f60208284031215611639575f80fd5b81356001600160a01b038116811461164f575f80fd5b9392505050565b634e487b7160e01b5f52604160045260245ffd5b604051601f8201601f1916810167ffffffffffffffff8111828210171561169357611693611656565b604052919050565b5f82601f8301126116aa575f80fd5b813567ffffffffffffffff8111156116c4576116c4611656565b6116d7601f8201601f191660200161166a565b8181528460208386010111156116eb575f80fd5b816020850160208301375f918101602001919091529392505050565b5f60208284031215611717575f80fd5b813567ffffffffffffffff81111561172d575f80fd5b6117398482850161169b565b949350505050565b5f5b8381101561175b578181015183820152602001611743565b50505f910152565b5f815180845261177a816020860160208601611741565b601f01601f19169290920160200192915050565b5f602080830181845280855180835260408601915060408160051b87010192508387015f5b828110156117e157603f198886030184526117cf858351611763565b945092850192908501906001016117b3565b5092979650505050505050565b5f8151808452602080850194508084015f5b8381101561181c57815187529582019590820190600101611800565b509495945050505050565b604081525f61183960408301856117ee565b828103602084015261184b81856117ee565b95945050505050565b5f8060408385031215611865575f80fd5b823567ffffffffffffffff81111561187b575f80fd5b6118878582860161169b565b95602094909401359450505050565b5f602082840312156118a6575f80fd5b5035919050565b602081525f61164f6020830184611763565b5f67ffffffffffffffff8211156118d8576118d8611656565b5060051b60200190565b5f82601f8301126118f1575f80fd5b81356020611906611901836118bf565b61166a565b82815260059290921b84018101918181019086841115611924575f80fd5b8286015b8481101561193f5780358352918301918301611928565b509695505050505050565b5f806040838503121561195b575f80fd5b823567ffffffffffffffff80821115611972575f80fd5b818501915085601f830112611985575f80fd5b81356020611995611901836118bf565b82815260059290921b840181019181810190898411156119b3575f80fd5b8286015b848110156119ea578035868111156119ce575f8081fd5b6119dc8c86838b010161169b565b8452509183019183016119b7565b5096505086013592505080821115611a00575f80fd5b50611a0d858286016118e2565b9150509250929050565b5f8251611a28818460208701611741565b9190910192915050565b6020808252818101527f50726963654f7261636c653a204173736574206e6f7420737570706f72746564604082015260600190565b634e487b7160e01b5f52601160045260245ffd5b818103818111156110b6576110b6611a67565b600181811c90821680611aa257607f821691505b60208210810361050b57634e487b7160e01b5f52602260045260245ffd5b634e487b7160e01b5f52603260045260245ffd5b5f81611ae257611ae2611a67565b505f190190565b80820281158282048414176110b6576110b6611a67565b5f82611b1a57634e487b7160e01b5f52601260045260245ffd5b500490565b5f600160ff1b8201611b3357611b33611a67565b505f0390565b5f808354611b4681611a8e565b60018281168015611b5e5760018114611b7357611b9f565b60ff1984168752821515830287019450611b9f565b875f526020805f205f5b85811015611b965781548a820152908401908201611b7d565b50505082870194505b50929695505050505050565b601f821115610a94575f81815260208120601f850160051c81016020861015611bd15750805b601f850160051c820191505b81811015611bf057828155600101611bdd565b505050505050565b818103611c03575050565b611c0d8254611a8e565b67ffffffffffffffff811115611c2557611c25611656565b611c3981611c338454611a8e565b84611bab565b5f601f821160018114611c6a575f8315611c535750848201545b5f19600385901b1c1916600184901b178455611ccc565b5f85815260209020601f198416905f86815260209020845b83811015611ca25782860154825560019586019590910190602001611c82565b5085831015611cbf57818501545f19600388901b60f8161c191681555b50505060018360011b0184555b5050505050565b634e487b7160e01b5f52603160045260245ffd5b5f60018201611cf857611cf8611a67565b5060010190565b815167ffffffffffffffff811115611d1957611d19611656565b611d2781611c338454611a8e565b602080601f831160018114611d5a575f8415611d435750858301515b5f19600386901b1c1916600185901b178555611bf0565b5f85815260208120601f198616915b82811015611d8857888601518255948401946001909101908401611d69565b5085821015611da557878501515f19600388901b60f8161c191681555b5050505050600190811b01905550565b808201808211156110b6576110b6611a6756fea2646970667358221220be13f293948b58241ffefae98c3030ed955289a4b406dd86484bbd22f413c12164736f6c63430008140033","linkReferences":{}},"methodIdentifiers":{"DEFAULT_HISTORY_SIZE()":"63df7a14","MAX_PRICE_AGE()":"9d7f7e86","PRICE_PRECISION()":"95082d25","addAsset(string)":"a7c6b52e","addUpdater(address)":"43d24a5e","assetList(uint256)":"a0b4b301","authorizedUpdaters(address)":"8ff29cfe","batchUpdatePrices(string[],uint256[])":"fcecd14a","getAllAssets()":"2acada4d","getPrice(string)":"524f3889","getPriceAge(string)":"22e39848","getPriceChange(string,uint256)":"461c0a55","getPriceHistory(string)":"3dbc43b5","isAssetSupported(string)":"3932d1ab","isAuthorized(address)":"fe9fbb80","latestPrices(string)":"7043c70e","owner()":"8da5cb5b","priceHistories(string)":"d32cc5ab","removeAsset(string)":"759af9ec","removeUpdater(address)":"04b07a5e","renounceOwnership()":"715018a6","setMaxPriceAge(uint256)":"56447ce8","supportedAssets(string)":"bfb9ffac","transferOwnership(address)":"f2fde38b","updatePrice(string,uint256)":"4a432a46"},"id":35}